{
  "contractName": "NestDeposit",
  "abi": [
    {
      "anonymous": false,
      "inputs": [
        {
          "indexed": false,
          "internalType": "address",
          "name": "pool",
          "type": "address"
        },
        {
          "indexed": false,
          "internalType": "address",
          "name": "cerc20",
          "type": "address"
        },
        {
          "indexed": false,
          "internalType": "address",
          "name": "from",
          "type": "address"
        },
        {
          "indexed": false,
          "internalType": "uint256",
          "name": "amount",
          "type": "uint256"
        }
      ],
      "name": "DepositMade",
      "type": "event"
    },
    {
      "anonymous": false,
      "inputs": [
        {
          "indexed": false,
          "internalType": "string",
          "name": "",
          "type": "string"
        },
        {
          "indexed": false,
          "internalType": "uint256",
          "name": "",
          "type": "uint256"
        }
      ],
      "name": "MyLog",
      "type": "event"
    },
    {
      "anonymous": false,
      "inputs": [
        {
          "indexed": false,
          "internalType": "address",
          "name": "pool",
          "type": "address"
        },
        {
          "indexed": false,
          "internalType": "address",
          "name": "cerc20",
          "type": "address"
        },
        {
          "indexed": false,
          "internalType": "address",
          "name": "to",
          "type": "address"
        },
        {
          "indexed": false,
          "internalType": "uint256",
          "name": "amount",
          "type": "uint256"
        }
      ],
      "name": "WithdrawalMade",
      "type": "event"
    },
    {
      "stateMutability": "payable",
      "type": "receive",
      "payable": true
    },
    {
      "inputs": [
        {
          "internalType": "address",
          "name": "_erc20Contract",
          "type": "address"
        },
        {
          "internalType": "uint256",
          "name": "amount",
          "type": "uint256"
        }
      ],
      "name": "setPoolReserveMin",
      "outputs": [
        {
          "internalType": "bool",
          "name": "",
          "type": "bool"
        }
      ],
      "stateMutability": "nonpayable",
      "type": "function"
    },
    {
      "inputs": [
        {
          "internalType": "address",
          "name": "_erc20Contract",
          "type": "address"
        }
      ],
      "name": "getPoolReserveMin",
      "outputs": [
        {
          "internalType": "uint256",
          "name": "",
          "type": "uint256"
        }
      ],
      "stateMutability": "view",
      "type": "function",
      "constant": true
    },
    {
      "inputs": [
        {
          "internalType": "address",
          "name": "_erc20Contract",
          "type": "address"
        },
        {
          "internalType": "address",
          "name": "_cErc20Contract",
          "type": "address"
        }
      ],
      "name": "updateReserve",
      "outputs": [
        {
          "internalType": "bool",
          "name": "",
          "type": "bool"
        }
      ],
      "stateMutability": "nonpayable",
      "type": "function"
    },
    {
      "inputs": [
        {
          "internalType": "address",
          "name": "_erc20Contract",
          "type": "address"
        },
        {
          "internalType": "address",
          "name": "_cErc20Contract",
          "type": "address"
        },
        {
          "internalType": "uint256",
          "name": "_numTokensToSupply",
          "type": "uint256"
        }
      ],
      "name": "depositErc20",
      "outputs": [
        {
          "internalType": "uint256",
          "name": "",
          "type": "uint256"
        }
      ],
      "stateMutability": "nonpayable",
      "type": "function"
    },
    {
      "inputs": [
        {
          "internalType": "address",
          "name": "_erc20Contract",
          "type": "address"
        },
        {
          "internalType": "uint256",
          "name": "amount",
          "type": "uint256"
        }
      ],
      "name": "withdrawErc20Tokens",
      "outputs": [
        {
          "internalType": "bool",
          "name": "",
          "type": "bool"
        }
      ],
      "stateMutability": "nonpayable",
      "type": "function"
    }
  ],
  "bytecode": "0x608060405234801561001057600080fd5b50610ff3806100206000396000f3fe60806040526004361061004e5760003560e01c80633dfb76f81461005a5780634c56b363146100975780638c2357ad146100d4578063b1bca5f214610111578063fcb8146e1461014e57610055565b3661005557005b600080fd5b34801561006657600080fd5b50610081600480360381019061007c9190610b22565b61018b565b60405161008e9190610d28565b60405180910390f35b3480156100a357600080fd5b506100be60048036038101906100b99190610b62565b61032a565b6040516100cb9190610d63565b60405180910390f35b3480156100e057600080fd5b506100fb60048036038101906100f69190610bb5565b610670565b6040516101089190610d28565b60405180910390f35b34801561011d57600080fd5b5061013860048036038101906101339190610af5565b6106c8565b6040516101459190610d63565b60405180910390f35b34801561015a57600080fd5b5061017560048036038101906101709190610bb5565b610714565b6040516101829190610d28565b60405180910390f35b60008083905060008390506000600160008773ffffffffffffffffffffffffffffffffffffffff1673ffffffffffffffffffffffffffffffffffffffff168152602001908152602001600020905080600101548160000154111561031d576000816001015482600001546101ff9190610e70565b90508373ffffffffffffffffffffffffffffffffffffffff1663095ea7b387836040518363ffffffff1660e01b815260040161023c929190610cff565b602060405180830381600087803b15801561025657600080fd5b505af115801561026a573d6000803e3d6000fd5b505050506040513d601f19601f8201168201806040525081019061028e9190610bf5565b508273ffffffffffffffffffffffffffffffffffffffff1663a0712d68826040518263ffffffff1660e01b81526004016102c89190610d63565b602060405180830381600087803b1580156102e257600080fd5b505af11580156102f6573d6000803e3d6000fd5b505050506040513d601f19601f8201168201806040525081019061031a9190610c22565b50505b6001935050505092915050565b600080849050600084905060008060003373ffffffffffffffffffffffffffffffffffffffff1673ffffffffffffffffffffffffffffffffffffffff168152602001908152602001600020905060008160000160008973ffffffffffffffffffffffffffffffffffffffff1673ffffffffffffffffffffffffffffffffffffffff168152602001908152602001600020905060008373ffffffffffffffffffffffffffffffffffffffff1663bd6d894d6040518163ffffffff1660e01b8152600401602060405180830381600087803b15801561040657600080fd5b505af115801561041a573d6000803e3d6000fd5b505050506040513d601f19601f8201168201806040525081019061043e9190610c22565b90506000818861044e9190610e16565b905087600160008c73ffffffffffffffffffffffffffffffffffffffff1673ffffffffffffffffffffffffffffffffffffffff16815260200190815260200160002060000160008282546104a29190610d8f565b925050819055508573ffffffffffffffffffffffffffffffffffffffff166323b872dd33308b6040518463ffffffff1660e01b81526004016104e693929190610cc8565b602060405180830381600087803b15801561050057600080fd5b505af1158015610514573d6000803e3d6000fd5b505050506040513d601f19601f820116820180604052508101906105389190610bf5565b508083600001600082825461054d9190610d8f565b9250508190555088600260008c73ffffffffffffffffffffffffffffffffffffffff1673ffffffffffffffffffffffffffffffffffffffff16815260200190815260200160002060006101000a81548173ffffffffffffffffffffffffffffffffffffffff021916908373ffffffffffffffffffffffffffffffffffffffff1602179055503073ffffffffffffffffffffffffffffffffffffffff16633dfb76f88b8b6040518363ffffffff1660e01b815260040161060d929190610c9f565b602060405180830381600087803b15801561062757600080fd5b505af115801561063b573d6000803e3d6000fd5b505050506040513d601f19601f8201168201806040525081019061065f9190610bf5565b508096505050505050509392505050565b600080600160008573ffffffffffffffffffffffffffffffffffffffff1673ffffffffffffffffffffffffffffffffffffffff1681526020019081526020016000209050828160010181905550600191505092915050565b6000600160008373ffffffffffffffffffffffffffffffffffffffff1673ffffffffffffffffffffffffffffffffffffffff168152602001908152602001600020600101549050919050565b600080600260008573ffffffffffffffffffffffffffffffffffffffff1673ffffffffffffffffffffffffffffffffffffffff16815260200190815260200160002060009054906101000a900473ffffffffffffffffffffffffffffffffffffffff1690506000849050600082905060008060003373ffffffffffffffffffffffffffffffffffffffff1673ffffffffffffffffffffffffffffffffffffffff168152602001908152602001600020905060008160000160008973ffffffffffffffffffffffffffffffffffffffff1673ffffffffffffffffffffffffffffffffffffffff168152602001908152602001600020905060008373ffffffffffffffffffffffffffffffffffffffff1663bd6d894d6040518163ffffffff1660e01b8152600401602060405180830381600087803b15801561085457600080fd5b505af1158015610868573d6000803e3d6000fd5b505050506040513d601f19601f8201168201806040525081019061088c9190610c22565b905060008183600001546108a09190610de5565b90508881116108e4576040517f08c379a00000000000000000000000000000000000000000000000000000000081526004016108db90610d43565b60405180910390fd5b6000600160008c73ffffffffffffffffffffffffffffffffffffffff1673ffffffffffffffffffffffffffffffffffffffff168152602001908152602001600020905089816000015410156109db578573ffffffffffffffffffffffffffffffffffffffff1663852a12e38b6040518263ffffffff1660e01b815260040161096c9190610d63565b602060405180830381600087803b15801561098657600080fd5b505af115801561099a573d6000803e3d6000fd5b505050506040513d601f19601f820116820180604052508101906109be9190610c22565b50898160000160008282546109d39190610d8f565b925050819055505b8673ffffffffffffffffffffffffffffffffffffffff1663a9059cbb338c6040518363ffffffff1660e01b8152600401610a16929190610cff565b602060405180830381600087803b158015610a3057600080fd5b505af1158015610a44573d6000803e3d6000fd5b505050506040513d601f19601f82011682018060405250810190610a689190610bf5565b50828a610a759190610e16565b846000016000828254610a889190610e70565b9250508190555060019850505050505050505092915050565b600081359050610ab081610f78565b92915050565b600081519050610ac581610f8f565b92915050565b600081359050610ada81610fa6565b92915050565b600081519050610aef81610fa6565b92915050565b600060208284031215610b0b57610b0a610f4a565b5b6000610b1984828501610aa1565b91505092915050565b60008060408385031215610b3957610b38610f4a565b5b6000610b4785828601610aa1565b9250506020610b5885828601610aa1565b9150509250929050565b600080600060608486031215610b7b57610b7a610f4a565b5b6000610b8986828701610aa1565b9350506020610b9a86828701610aa1565b9250506040610bab86828701610acb565b9150509250925092565b60008060408385031215610bcc57610bcb610f4a565b5b6000610bda85828601610aa1565b9250506020610beb85828601610acb565b9150509250929050565b600060208284031215610c0b57610c0a610f4a565b5b6000610c1984828501610ab6565b91505092915050565b600060208284031215610c3857610c37610f4a565b5b6000610c4684828501610ae0565b91505092915050565b610c5881610ea4565b82525050565b610c6781610eb6565b82525050565b6000610c7a601b83610d7e565b9150610c8582610f4f565b602082019050919050565b610c9981610ee2565b82525050565b6000604082019050610cb46000830185610c4f565b610cc16020830184610c4f565b9392505050565b6000606082019050610cdd6000830186610c4f565b610cea6020830185610c4f565b610cf76040830184610c90565b949350505050565b6000604082019050610d146000830185610c4f565b610d216020830184610c90565b9392505050565b6000602082019050610d3d6000830184610c5e565b92915050565b60006020820190508181036000830152610d5c81610c6d565b9050919050565b6000602082019050610d786000830184610c90565b92915050565b600082825260208201905092915050565b6000610d9a82610ee2565b9150610da583610ee2565b9250827fffffffffffffffffffffffffffffffffffffffffffffffffffffffffffffffff03821115610dda57610dd9610eec565b5b828201905092915050565b6000610df082610ee2565b9150610dfb83610ee2565b925082610e0b57610e0a610f1b565b5b828204905092915050565b6000610e2182610ee2565b9150610e2c83610ee2565b9250817fffffffffffffffffffffffffffffffffffffffffffffffffffffffffffffffff0483118215151615610e6557610e64610eec565b5b828202905092915050565b6000610e7b82610ee2565b9150610e8683610ee2565b925082821015610e9957610e98610eec565b5b828203905092915050565b6000610eaf82610ec2565b9050919050565b60008115159050919050565b600073ffffffffffffffffffffffffffffffffffffffff82169050919050565b6000819050919050565b7f4e487b7100000000000000000000000000000000000000000000000000000000600052601160045260246000fd5b7f4e487b7100000000000000000000000000000000000000000000000000000000600052601260045260246000fd5b600080fd5b7f596f7520646f6e2774206861766520656e6f7567682066756e64730000000000600082015250565b610f8181610ea4565b8114610f8c57600080fd5b50565b610f9881610eb6565b8114610fa357600080fd5b50565b610faf81610ee2565b8114610fba57600080fd5b5056fea2646970667358221220c0220374bb5d8b81ad6fac2c5698b9aa5e9800a9a5bbfd3493d212d0de5172e364736f6c63430008050033",
  "immutableReferences": {},
  "source": "pragma solidity >=0.4.22 <0.9.0;\n\ninterface Erc20 {\n    function approve(address, uint256) external returns (bool);\n\n    function transfer(address, uint256) external returns (bool);\n\n    function transferFrom(address, address, uint256) external returns (bool);\n}\ninterface CErc20 {\n    function mint(uint256) external returns (uint256);\n\n    function approve(address, uint256) external returns (bool);\n\n    function exchangeRateCurrent() external returns (uint256);\n\n    function supplyRatePerBlock() external returns (uint256);\n\n    function redeem(uint) external returns (uint);\n\n    function redeemUnderlying(uint) external returns (uint);\n\n    function transfer(address, uint256) external returns (bool);\n}\ninterface CEth {\n    function mint() external payable;\n\n    function exchangeRateCurrent() external returns (uint256);\n\n    function supplyRatePerBlock() external returns (uint256);\n\n    function redeem(uint) external returns (uint);\n\n    function redeemUnderlying(uint) external returns (uint);\n}\n\n\n\ninterface IRecursive {\n    function updateReserve(\n        address _erc20Contract,\n        address _cErc20Contract) external returns (bool);\n}\n\n\ncontract NestDeposit is IRecursive {\n\n    struct Pool {\n        uint256 balance;\n        uint256 reserve;\n        uint256 performanceFee;\n        uint256 managementFee;\n    }\n\n    struct Token {\n        uint256 balance;\n    }\n\n    struct Account {\n        mapping(address => Token) tokens;\n    }\n\n    mapping(address => Account) internal accounts;\n\n    mapping(address => Pool) internal pools;\n\n    mapping(address => address) internal marketPairs;\n\n    event MyLog(string, uint256);\n\n    event DepositMade(address pool, address cerc20, address from, uint256 amount);\n\n    event WithdrawalMade(address pool, address cerc20, address to, uint256 amount);\n\n    function setPoolReserveMin(address _erc20Contract, uint256 amount) external returns(bool){\n        Pool storage pool = pools[_erc20Contract];\n        pool.reserve = amount;\n        return true;\n    }\n\n    function getPoolReserveMin(address _erc20Contract) external view returns(uint256){\n        return pools[_erc20Contract].reserve;\n    }\n\n    function updateReserve(\n        address _erc20Contract,\n        address _cErc20Contract) external override returns (bool) {\n\n        // Create a reference to the underlying asset contract, like DAI.\n        Erc20 underlying = Erc20(_erc20Contract);\n\n        // Create a reference to the corresponding cToken contract, like cDAI\n        CErc20 cToken = CErc20(_cErc20Contract);\n\n        // Update pool balance\n        Pool storage pool = pools[_erc20Contract];\n        if(pool.balance > pool.reserve ) {\n            uint256 amount = pool.balance - pool.reserve;\n            underlying.approve(_cErc20Contract, amount);\n            cToken.mint((amount));\n        }\n\n        return true;\n    }\n\n    function depositErc20(\n        address _erc20Contract,\n        address _cErc20Contract,\n        uint256 _numTokensToSupply\n    ) public returns (uint256) {        \n        // Create a reference to the underlying asset contract, like DAI.\n        Erc20 underlying = Erc20(_erc20Contract);\n\n        // Create a reference to the corresponding cToken contract, like cDAI\n        CErc20 cToken = CErc20(_cErc20Contract);\n\n        // Approve transfer on the ERC20 contract\n        // underlying.approve(_cErc20Contract, _numTokensToSupply);\n\n        //  Record tokens\n        // Get user account\n        Account storage account = accounts[msg.sender];\n\n        // Save deposit\n        Token storage token = account.tokens[_erc20Contract];\n\n        // Get exchange rate\n        uint256 exchangeRateMantissa = cToken.exchangeRateCurrent();\n\n        // Calculate cToken value\n        uint256 mintResult = _numTokensToSupply*exchangeRateMantissa;\n\n        // Update pool balance\n        pools[_erc20Contract].balance += _numTokensToSupply;\n\n        // Check allowance\n        // underlying.allowance(address(this), address(this));\n\n        // Give this contract the ERC20 Tokens\n        underlying.transferFrom(msg.sender, address(this), _numTokensToSupply);\n\n        // Calculate current balance  and add new balance to it\n        token.balance += mintResult;\n\n        // Save valid Erc20 to cErc20 pair\n        marketPairs[_erc20Contract] = _cErc20Contract;\n\n        // Check if we should mint\n        IRecursive(address(this)).updateReserve(_erc20Contract, _cErc20Contract);\n\n        return mintResult;\n    }\n    function withdrawErc20Tokens(\n        address _erc20Contract,\n        uint256 amount\n    ) public returns (bool) {\n        // Get valid cERC20 address from previous succesful deposit\n        address _cErc20Contract = marketPairs[_erc20Contract];\n\n        // Create a reference to the underlying asset contract, like DAI.\n        Erc20 underlying = Erc20(_erc20Contract);\n\n        // Create a reference to the corresponding cToken contract, like cDAI\n        CErc20 cToken = CErc20(_cErc20Contract);\n\n        // Get user account\n        Account storage account = accounts[msg.sender];\n\n        // Check if user has enough funds\n        Token storage token = account.tokens[_erc20Contract];\n\n        uint256 exchangeRateMantissa = cToken.exchangeRateCurrent();\n\n        uint256 underlyingAmount = token.balance / exchangeRateMantissa;\n\n        require(underlyingAmount > amount, \"You don't have enough funds\");\n\n        // Get pool\n        Pool storage pool = pools[_erc20Contract];\n\n        // Redeem from compound if pool balance is low\n        if(pool.balance < amount) {\n            cToken.redeemUnderlying(amount);\n            pool.balance += amount;\n        }\n\n        underlying.transfer(msg.sender, amount);\n\n        // Subtract cTokens\n        token.balance -= amount*exchangeRateMantissa;\n\n        return true;\n    }\n\n     receive() external payable {\n            // React to receiving ether\n     }\n}",
  "sourcePath": "/Users/victoria/projects/nest/contracts/NestDeposit.sol",
  "compiler": {
    "name": "solc",
    "version": "0.8.5+commit.a4f2e591.Emscripten.clang"
  },
  "schemaVersion": "3.4.1",
  "updatedAt": "2021-11-16T15:23:46.330Z",
  "networkType": "ethereum",
  "devdoc": {
    "kind": "dev",
    "methods": {},
    "version": 1
  },
  "userdoc": {
    "kind": "user",
    "methods": {},
    "version": 1
  }
}