{
  "contractName": "NestDeposit",
  "abi": [
    {
      "anonymous": false,
      "inputs": [
        {
          "indexed": false,
          "internalType": "address",
          "name": "pool",
          "type": "address"
        },
        {
          "indexed": false,
          "internalType": "address",
          "name": "cerc20",
          "type": "address"
        },
        {
          "indexed": false,
          "internalType": "address",
          "name": "from",
          "type": "address"
        },
        {
          "indexed": false,
          "internalType": "uint256",
          "name": "amount",
          "type": "uint256"
        }
      ],
      "name": "DepositMade",
      "type": "event"
    },
    {
      "anonymous": false,
      "inputs": [
        {
          "indexed": false,
          "internalType": "string",
          "name": "",
          "type": "string"
        },
        {
          "indexed": false,
          "internalType": "uint256",
          "name": "",
          "type": "uint256"
        }
      ],
      "name": "MyLog",
      "type": "event"
    },
    {
      "anonymous": false,
      "inputs": [
        {
          "indexed": false,
          "internalType": "address",
          "name": "pool",
          "type": "address"
        },
        {
          "indexed": false,
          "internalType": "address",
          "name": "cerc20",
          "type": "address"
        },
        {
          "indexed": false,
          "internalType": "address",
          "name": "to",
          "type": "address"
        },
        {
          "indexed": false,
          "internalType": "uint256",
          "name": "amount",
          "type": "uint256"
        }
      ],
      "name": "WithdrawalMade",
      "type": "event"
    },
    {
      "stateMutability": "nonpayable",
      "type": "fallback"
    },
    {
      "inputs": [
        {
          "internalType": "address",
          "name": "_erc20Contract",
          "type": "address"
        },
        {
          "internalType": "uint256",
          "name": "amount",
          "type": "uint256"
        }
      ],
      "name": "setPoolReserveMin",
      "outputs": [
        {
          "internalType": "bool",
          "name": "",
          "type": "bool"
        }
      ],
      "stateMutability": "nonpayable",
      "type": "function"
    },
    {
      "inputs": [
        {
          "internalType": "address",
          "name": "_erc20Contract",
          "type": "address"
        }
      ],
      "name": "getPoolReserveMin",
      "outputs": [
        {
          "internalType": "uint256",
          "name": "",
          "type": "uint256"
        }
      ],
      "stateMutability": "view",
      "type": "function"
    },
    {
      "inputs": [
        {
          "internalType": "address",
          "name": "_erc20Contract",
          "type": "address"
        },
        {
          "internalType": "address",
          "name": "_cErc20Contract",
          "type": "address"
        }
      ],
      "name": "updateReserve",
      "outputs": [
        {
          "internalType": "bool",
          "name": "",
          "type": "bool"
        }
      ],
      "stateMutability": "nonpayable",
      "type": "function"
    },
    {
      "inputs": [
        {
          "internalType": "address",
          "name": "_erc20Contract",
          "type": "address"
        },
        {
          "internalType": "uint256",
          "name": "amount",
          "type": "uint256"
        }
      ],
      "name": "fillReserve",
      "outputs": [
        {
          "internalType": "bool",
          "name": "",
          "type": "bool"
        }
      ],
      "stateMutability": "nonpayable",
      "type": "function"
    },
    {
      "inputs": [
        {
          "internalType": "address",
          "name": "_erc20Contract",
          "type": "address"
        },
        {
          "internalType": "uint256",
          "name": "_numTokensToSupply",
          "type": "uint256"
        }
      ],
      "name": "depositErc20",
      "outputs": [
        {
          "internalType": "uint256",
          "name": "",
          "type": "uint256"
        }
      ],
      "stateMutability": "nonpayable",
      "type": "function"
    },
    {
      "inputs": [
        {
          "internalType": "address",
          "name": "_erc20Contract",
          "type": "address"
        },
        {
          "internalType": "uint256",
          "name": "amount",
          "type": "uint256"
        }
      ],
      "name": "withdrawErc20Tokens",
      "outputs": [
        {
          "internalType": "bool",
          "name": "",
          "type": "bool"
        }
      ],
      "stateMutability": "nonpayable",
      "type": "function"
    },
    {
      "inputs": [
        {
          "internalType": "address",
          "name": "erc",
          "type": "address"
        },
        {
          "internalType": "address",
          "name": "market",
          "type": "address"
        }
      ],
      "name": "setMarketPair",
      "outputs": [
        {
          "internalType": "bool",
          "name": "",
          "type": "bool"
        }
      ],
      "stateMutability": "nonpayable",
      "type": "function"
    },
    {
      "inputs": [
        {
          "internalType": "address",
          "name": "erc",
          "type": "address"
        },
        {
          "internalType": "uint256",
          "name": "fee",
          "type": "uint256"
        }
      ],
      "name": "setFeeRate",
      "outputs": [
        {
          "internalType": "bool",
          "name": "",
          "type": "bool"
        }
      ],
      "stateMutability": "nonpayable",
      "type": "function"
    },
    {
      "inputs": [],
      "name": "changeOwner",
      "outputs": [
        {
          "internalType": "bool",
          "name": "",
          "type": "bool"
        }
      ],
      "stateMutability": "nonpayable",
      "type": "function"
    }
  ],
  "bytecode": "0x6080604052336000806101000a81548173ffffffffffffffffffffffffffffffffffffffff021916908373ffffffffffffffffffffffffffffffffffffffff16021790555034801561005057600080fd5b50611504806100606000396000f3fe608060405234801561001057600080fd5b50600436106100975760003560e01c80638013519d116100665780638013519d146101485780638c2357ad14610178578063942dc573146101a8578063b1bca5f2146101d8578063fcb8146e1461020857610098565b80632898da201461009a5780633dfb76f8146100ca57806362a09477146100fa5780636548b40d1461011857610098565b5b005b6100b460048036038101906100af919061105a565b610238565b6040516100c191906111f0565b60405180910390f35b6100e460048036038101906100df919061101a565b610393565b6040516100f191906111f0565b60405180910390f35b61010261054d565b60405161010f91906111f0565b60405180910390f35b610132600480360381019061012d919061105a565b610625565b60405161013f919061124b565b60405180910390f35b610162600480360381019061015d919061101a565b61096d565b60405161016f91906111f0565b60405180910390f35b610192600480360381019061018d919061105a565b610a86565b60405161019f91906111f0565b60405180910390f35b6101c260048036038101906101bd919061105a565b610ade565b6040516101cf91906111f0565b60405180910390f35b6101f260048036038101906101ed9190610fed565b610bbd565b6040516101ff919061124b565b60405180910390f35b610222600480360381019061021d919061105a565b610c09565b60405161022f91906111f0565b60405180910390f35b600080600360008573ffffffffffffffffffffffffffffffffffffffff1673ffffffffffffffffffffffffffffffffffffffff16815260200190815260200160002060009054906101000a900473ffffffffffffffffffffffffffffffffffffffff16905060008190508073ffffffffffffffffffffffffffffffffffffffff1663852a12e3856040518263ffffffff1660e01b81526004016102db919061124b565b602060405180830381600087803b1580156102f557600080fd5b505af1158015610309573d6000803e3d6000fd5b505050506040513d601f19601f8201168201806040525081019061032d91906110c7565b5083600260008773ffffffffffffffffffffffffffffffffffffffff1673ffffffffffffffffffffffffffffffffffffffff16815260200190815260200160002060000160008282546103809190611277565b9250508190555060019250505092915050565b60008083905060008390506000600260008773ffffffffffffffffffffffffffffffffffffffff1673ffffffffffffffffffffffffffffffffffffffff1681526020019081526020016000209050806001015481600001541115610540576000816001015482600001546104079190611358565b90508373ffffffffffffffffffffffffffffffffffffffff1663095ea7b387836040518363ffffffff1660e01b81526004016104449291906111c7565b602060405180830381600087803b15801561045e57600080fd5b505af1158015610472573d6000803e3d6000fd5b505050506040513d601f19601f82011682018060405250810190610496919061109a565b508273ffffffffffffffffffffffffffffffffffffffff1663a0712d68826040518263ffffffff1660e01b81526004016104d0919061124b565b602060405180830381600087803b1580156104ea57600080fd5b505af11580156104fe573d6000803e3d6000fd5b505050506040513d601f19601f8201168201806040525081019061052291906110c7565b50808260000160008282546105379190611358565b92505081905550505b6001935050505092915050565b60008060009054906101000a900473ffffffffffffffffffffffffffffffffffffffff1673ffffffffffffffffffffffffffffffffffffffff163373ffffffffffffffffffffffffffffffffffffffff16146105de576040517f08c379a00000000000000000000000000000000000000000000000000000000081526004016105d59061120b565b60405180910390fd5b336000806101000a81548173ffffffffffffffffffffffffffffffffffffffff021916908373ffffffffffffffffffffffffffffffffffffffff1602179055506001905090565b6000808390506000600360008673ffffffffffffffffffffffffffffffffffffffff1673ffffffffffffffffffffffffffffffffffffffff16815260200190815260200160002060009054906101000a900473ffffffffffffffffffffffffffffffffffffffff169050600081905060008173ffffffffffffffffffffffffffffffffffffffff1663bd6d894d6040518163ffffffff1660e01b8152600401602060405180830381600087803b1580156106de57600080fd5b505af11580156106f2573d6000803e3d6000fd5b505050506040513d601f19601f8201168201806040525081019061071691906110c7565b90506000600160003373ffffffffffffffffffffffffffffffffffffffff1673ffffffffffffffffffffffffffffffffffffffff168152602001908152602001600020905060008160000160008a73ffffffffffffffffffffffffffffffffffffffff1673ffffffffffffffffffffffffffffffffffffffff1681526020019081526020016000209050878160010160008282546107b49190611277565b92505081905550600083896107c991906112fe565b905088600260008c73ffffffffffffffffffffffffffffffffffffffff1673ffffffffffffffffffffffffffffffffffffffff168152602001908152602001600020600001600082825461081d9190611277565b925050819055508673ffffffffffffffffffffffffffffffffffffffff166323b872dd33308c6040518463ffffffff1660e01b815260040161086193929190611190565b602060405180830381600087803b15801561087b57600080fd5b505af115801561088f573d6000803e3d6000fd5b505050506040513d601f19601f820116820180604052508101906108b3919061109a565b50808260000160008282546108c89190611277565b925050819055503073ffffffffffffffffffffffffffffffffffffffff16633dfb76f88b886040518363ffffffff1660e01b815260040161090a929190611167565b602060405180830381600087803b15801561092457600080fd5b505af1158015610938573d6000803e3d6000fd5b505050506040513d601f19601f8201168201806040525081019061095c919061109a565b508097505050505050505092915050565b60008060009054906101000a900473ffffffffffffffffffffffffffffffffffffffff1673ffffffffffffffffffffffffffffffffffffffff163373ffffffffffffffffffffffffffffffffffffffff16146109fe576040517f08c379a00000000000000000000000000000000000000000000000000000000081526004016109f59061120b565b60405180910390fd5b81600360008573ffffffffffffffffffffffffffffffffffffffff1673ffffffffffffffffffffffffffffffffffffffff16815260200190815260200160002060006101000a81548173ffffffffffffffffffffffffffffffffffffffff021916908373ffffffffffffffffffffffffffffffffffffffff1602179055506001905092915050565b600080600260008573ffffffffffffffffffffffffffffffffffffffff1673ffffffffffffffffffffffffffffffffffffffff1681526020019081526020016000209050828160010181905550600191505092915050565b60008060009054906101000a900473ffffffffffffffffffffffffffffffffffffffff1673ffffffffffffffffffffffffffffffffffffffff163373ffffffffffffffffffffffffffffffffffffffff1614610b6f576040517f08c379a0000000000000000000000000000000000000000000000000000000008152600401610b669061120b565b60405180910390fd5b81600460008573ffffffffffffffffffffffffffffffffffffffff1673ffffffffffffffffffffffffffffffffffffffff168152602001908152602001600020819055506001905092915050565b6000600260008373ffffffffffffffffffffffffffffffffffffffff1673ffffffffffffffffffffffffffffffffffffffff168152602001908152602001600020600101549050919050565b600080600360008573ffffffffffffffffffffffffffffffffffffffff1673ffffffffffffffffffffffffffffffffffffffff16815260200190815260200160002060009054906101000a900473ffffffffffffffffffffffffffffffffffffffff169050600084905060008290506000600160003373ffffffffffffffffffffffffffffffffffffffff1673ffffffffffffffffffffffffffffffffffffffff168152602001908152602001600020905060008273ffffffffffffffffffffffffffffffffffffffff1663bd6d894d6040518163ffffffff1660e01b8152600401602060405180830381600087803b158015610d0557600080fd5b505af1158015610d19573d6000803e3d6000fd5b505050506040513d601f19601f82011682018060405250810190610d3d91906110c7565b905060008260000160008a73ffffffffffffffffffffffffffffffffffffffff1673ffffffffffffffffffffffffffffffffffffffff16815260200190815260200160002090506000828260000154610d9691906112cd565b9050888111610dda576040517f08c379a0000000000000000000000000000000000000000000000000000000008152600401610dd19061122b565b60405180910390fd5b88826001016000828254610dee9190611358565b925050819055506000600260008c73ffffffffffffffffffffffffffffffffffffffff1673ffffffffffffffffffffffffffffffffffffffff16815260200190815260200160002090508981600001541015610ed3573073ffffffffffffffffffffffffffffffffffffffff16632898da208c8c6040518363ffffffff1660e01b8152600401610e7f9291906111c7565b602060405180830381600087803b158015610e9957600080fd5b505af1158015610ead573d6000803e3d6000fd5b505050506040513d601f19601f82011682018060405250810190610ed1919061109a565b505b8673ffffffffffffffffffffffffffffffffffffffff1663a9059cbb338c6040518363ffffffff1660e01b8152600401610f0e9291906111c7565b602060405180830381600087803b158015610f2857600080fd5b505af1158015610f3c573d6000803e3d6000fd5b505050506040513d601f19601f82011682018060405250810190610f60919061109a565b50838a610f6d91906112fe565b836000016000828254610f809190611358565b9250508190555060019850505050505050505092915050565b600081359050610fa881611489565b92915050565b600081519050610fbd816114a0565b92915050565b600081359050610fd2816114b7565b92915050565b600081519050610fe7816114b7565b92915050565b60006020828403121561100357611002611432565b5b600061101184828501610f99565b91505092915050565b6000806040838503121561103157611030611432565b5b600061103f85828601610f99565b925050602061105085828601610f99565b9150509250929050565b6000806040838503121561107157611070611432565b5b600061107f85828601610f99565b925050602061109085828601610fc3565b9150509250929050565b6000602082840312156110b0576110af611432565b5b60006110be84828501610fae565b91505092915050565b6000602082840312156110dd576110dc611432565b5b60006110eb84828501610fd8565b91505092915050565b6110fd8161138c565b82525050565b61110c8161139e565b82525050565b600061111f601283611266565b915061112a82611437565b602082019050919050565b6000611142601b83611266565b915061114d82611460565b602082019050919050565b611161816113ca565b82525050565b600060408201905061117c60008301856110f4565b61118960208301846110f4565b9392505050565b60006060820190506111a560008301866110f4565b6111b260208301856110f4565b6111bf6040830184611158565b949350505050565b60006040820190506111dc60008301856110f4565b6111e96020830184611158565b9392505050565b60006020820190506112056000830184611103565b92915050565b6000602082019050818103600083015261122481611112565b9050919050565b6000602082019050818103600083015261124481611135565b9050919050565b60006020820190506112606000830184611158565b92915050565b600082825260208201905092915050565b6000611282826113ca565b915061128d836113ca565b9250827fffffffffffffffffffffffffffffffffffffffffffffffffffffffffffffffff038211156112c2576112c16113d4565b5b828201905092915050565b60006112d8826113ca565b91506112e3836113ca565b9250826112f3576112f2611403565b5b828204905092915050565b6000611309826113ca565b9150611314836113ca565b9250817fffffffffffffffffffffffffffffffffffffffffffffffffffffffffffffffff048311821515161561134d5761134c6113d4565b5b828202905092915050565b6000611363826113ca565b915061136e836113ca565b925082821015611381576113806113d4565b5b828203905092915050565b6000611397826113aa565b9050919050565b60008115159050919050565b600073ffffffffffffffffffffffffffffffffffffffff82169050919050565b6000819050919050565b7f4e487b7100000000000000000000000000000000000000000000000000000000600052601160045260246000fd5b7f4e487b7100000000000000000000000000000000000000000000000000000000600052601260045260246000fd5b600080fd5b7f4f6e6c79206f776e657220616c6c6f7765640000000000000000000000000000600082015250565b7f596f7520646f6e2774206861766520656e6f7567682066756e64730000000000600082015250565b6114928161138c565b811461149d57600080fd5b50565b6114a98161139e565b81146114b457600080fd5b50565b6114c0816113ca565b81146114cb57600080fd5b5056fea264697066735822122068a3650572f87a8629e16e317f36fc49f339aeeefde4802dfb6eccb4844561f464736f6c63430008050033",
  "immutableReferences": {},
  "source": "pragma solidity >=0.4.22 <0.9.0;\n\ninterface Erc20 {\n    function approve(address, uint256) external returns (bool);\n\n    function transfer(address, uint256) external returns (bool);\n\n    function transferFrom(address, address, uint256) external returns (bool);\n}\ninterface CErc20 {\n    function mint(uint256) external returns (uint256);\n\n    function approve(address, uint256) external returns (bool);\n\n    function exchangeRateCurrent() external returns (uint256);\n\n    function supplyRatePerBlock() external returns (uint256);\n\n    function redeem(uint) external returns (uint);\n\n    function redeemUnderlying(uint) external returns (uint);\n\n    function transfer(address, uint256) external returns (bool);\n}\ninterface CEth {\n    function mint() external payable;\n\n    function exchangeRateCurrent() external returns (uint256);\n\n    function supplyRatePerBlock() external returns (uint256);\n\n    function redeem(uint) external returns (uint);\n\n    function redeemUnderlying(uint) external returns (uint);\n}\n\ninterface IRecursive {\n    function updateReserve(\n        address _erc20Contract,\n        address _cErc20Contract) external returns (bool);\n\n    function fillReserve(\n            address _erc20Contract,\n            uint256 amount) external returns (bool);\n}\n\n\ncontract NestDeposit is IRecursive {\n    address owner = msg.sender;\n\n    struct Pool {\n        uint256 balance;\n        uint256 reserve;\n        uint256 performanceFee;\n        uint256 managementFee;\n    }\n\n    struct Token {\n        uint256 balance;\n        uint256 deposit;\n    }\n\n    struct Account {\n        mapping(address => Token) tokens;\n    }\n\n    mapping(address => Account) internal accounts;\n\n    mapping(address => Pool) internal pools;\n\n    mapping(address => address) internal marketPairs;\n\n    mapping(address => uint) internal feeRate;\n\n    event MyLog(string, uint256);\n\n    event DepositMade(address pool, address cerc20, address from, uint256 amount);\n\n    event WithdrawalMade(address pool, address cerc20, address to, uint256 amount);\n\n    modifier onlyOwner{\n        require(msg.sender == owner, \"Only owner allowed\");\n        _;\n    }\n    function setPoolReserveMin(address _erc20Contract, uint256 amount) external returns(bool){\n        Pool storage pool = pools[_erc20Contract];\n        pool.reserve = amount;\n        return true;\n    }\n\n    function getPoolReserveMin(address _erc20Contract) external view returns(uint256){\n        return pools[_erc20Contract].reserve;\n    }\n\n    function updateReserve(\n        address _erc20Contract,\n        address _cErc20Contract) external override returns (bool) {\n\n        // Create a reference to the underlying asset contract, like DAI.\n        Erc20 underlying = Erc20(_erc20Contract);\n\n        // Create a reference to the corresponding cToken contract, like cDAI\n        CErc20 cToken = CErc20(_cErc20Contract);\n\n        // Update pool balance\n        Pool storage pool = pools[_erc20Contract];\n        if(pool.balance > pool.reserve ) {\n            uint256 amount = pool.balance - pool.reserve;\n            underlying.approve(_cErc20Contract, amount);\n            cToken.mint((amount));\n\n             // Update pool balance\n            pool.balance -= amount;\n        }\n\n        return true;\n    }\n    function fillReserve(\n        address _erc20Contract,\n        uint256 amount) external override returns (bool) {\n\n        // Get valid cERC20 address from previous succesful deposit\n        address _cErc20Contract = marketPairs[_erc20Contract];\n\n        // Create a reference to the corresponding cToken contract, like cDAI\n        CErc20 cToken = CErc20(_cErc20Contract);\n\n        // Redeem underlying\n        cToken.redeemUnderlying(amount);\n\n        // Update pool balance\n        pools[_erc20Contract].balance += amount;\n\n        return true;\n    }\n    function depositErc20(\n        address _erc20Contract,\n        uint256 _numTokensToSupply\n    ) public returns (uint256) {        \n        // Create a reference to the underlying asset contract, like DAI.\n        Erc20 underlying = Erc20(_erc20Contract);\n\n        address _cErc20Contract = marketPairs[_erc20Contract];\n\n        // Create a reference to the corresponding cToken contract, like cDAI\n        CErc20 cToken = CErc20(_cErc20Contract);\n\n        // Get exchange rate\n        uint256 exchangeRateMantissa = cToken.exchangeRateCurrent();\n\n        // Get user account\n        Account storage account = accounts[msg.sender];\n\n        // Save deposit\n        Token storage token = account.tokens[_erc20Contract];\n\n        // Save amount being deposited\n        token.deposit += _numTokensToSupply;\n    \n        // Calculate cToken value\n        uint256 mintResult = _numTokensToSupply*exchangeRateMantissa;\n\n        // Update pool balance\n        pools[_erc20Contract].balance += _numTokensToSupply;\n\n        // Give this contract the ERC20 Tokens\n        underlying.transferFrom(msg.sender, address(this), _numTokensToSupply);\n\n        // Calculate current balance  and add new balance to it\n        token.balance += mintResult;\n\n        // Check if we should mint\n        IRecursive(address(this)).updateReserve(_erc20Contract, _cErc20Contract);\n\n        return mintResult;\n    }\n\n\n    function withdrawErc20Tokens(\n        address _erc20Contract,\n        uint256 amount\n    ) public returns (bool) {\n        // Get valid cERC20 address from previous succesful deposit\n        address _cErc20Contract = marketPairs[_erc20Contract];\n\n        // Create a reference to the underlying asset contract, like DAI.\n        Erc20 underlying = Erc20(_erc20Contract);\n\n        // Create a reference to the corresponding cToken contract, like cDAI\n        CErc20 cToken = CErc20(_cErc20Contract);\n\n        // Get user account\n        Account storage account = accounts[msg.sender];\n\n        // Get exchange rate\n        uint256 exchangeRateMantissa = cToken.exchangeRateCurrent();\n\n        // Check if user has enough funds\n        Token storage token = account.tokens[_erc20Contract];\n\n        // Calculate current underlying\n        uint256 underlyingAmount = token.balance / exchangeRateMantissa;\n\n        require(underlyingAmount > amount, \"You don't have enough funds\");\n\n        // Calculate interest and subtract fees\n        // uint256 interest = underlyingAmount - token.deposit;\n        // uint256 fees = (amount/token.deposit)*interest*nameNumberParameters[\"feePercent\"];\n\n        // Subtract erc token and fees\n        // token.deposit -= fees;\n        token.deposit -= amount;\n\n        // Get pool\n        Pool storage pool = pools[_erc20Contract];\n\n        if(pool.balance < amount) {\n            // Redeem underlying\n            IRecursive(address(this)).fillReserve(_erc20Contract, amount);\n        }\n\n        underlying.transfer(msg.sender, amount);\n\n        // Subtract cTokens\n        token.balance -= amount*exchangeRateMantissa;\n\n        return true;\n    }\n\n    function setMarketPair(address erc, address market) external onlyOwner returns (bool) {\n        marketPairs[erc] = market;\n        return true;\n    }\n\n    function setFeeRate(address erc, uint fee) external onlyOwner returns (bool) {\n        feeRate[erc] = fee;\n        return true;\n    }\n\n    function changeOwner() external onlyOwner returns (bool) {\n        owner = msg.sender;\n        return true;\n    }\n\n     fallback() external {\n     }\n}",
  "sourcePath": "/Users/victoria/projects/nest/contracts/NestDeposit.sol",
  "compiler": {
    "name": "solc",
    "version": "0.8.5+commit.a4f2e591.Emscripten.clang"
  },
  "schemaVersion": "3.4.1",
  "updatedAt": "2022-01-08T12:23:27.911Z",
  "devdoc": {
    "kind": "dev",
    "methods": {},
    "version": 1
  },
  "userdoc": {
    "kind": "user",
    "methods": {},
    "version": 1
  }
}