{
  "contractName": "NestDeposit",
  "abi": [
    {
      "anonymous": false,
      "inputs": [
        {
          "indexed": false,
          "internalType": "address",
          "name": "pool",
          "type": "address"
        },
        {
          "indexed": false,
          "internalType": "address",
          "name": "cerc20",
          "type": "address"
        },
        {
          "indexed": false,
          "internalType": "address",
          "name": "from",
          "type": "address"
        },
        {
          "indexed": false,
          "internalType": "uint256",
          "name": "amount",
          "type": "uint256"
        }
      ],
      "name": "DepositMade",
      "type": "event"
    },
    {
      "anonymous": false,
      "inputs": [
        {
          "indexed": false,
          "internalType": "string",
          "name": "",
          "type": "string"
        },
        {
          "indexed": false,
          "internalType": "uint256",
          "name": "",
          "type": "uint256"
        }
      ],
      "name": "MyLog",
      "type": "event"
    },
    {
      "anonymous": false,
      "inputs": [
        {
          "indexed": false,
          "internalType": "address",
          "name": "pool",
          "type": "address"
        },
        {
          "indexed": false,
          "internalType": "address",
          "name": "cerc20",
          "type": "address"
        },
        {
          "indexed": false,
          "internalType": "address",
          "name": "to",
          "type": "address"
        },
        {
          "indexed": false,
          "internalType": "uint256",
          "name": "amount",
          "type": "uint256"
        }
      ],
      "name": "WithdrawalMade",
      "type": "event"
    },
    {
      "stateMutability": "payable",
      "type": "receive",
      "payable": true
    },
    {
      "inputs": [
        {
          "internalType": "address",
          "name": "_erc20Contract",
          "type": "address"
        },
        {
          "internalType": "uint256",
          "name": "amount",
          "type": "uint256"
        }
      ],
      "name": "setPoolReserveMin",
      "outputs": [
        {
          "internalType": "bool",
          "name": "",
          "type": "bool"
        }
      ],
      "stateMutability": "nonpayable",
      "type": "function"
    },
    {
      "inputs": [
        {
          "internalType": "address",
          "name": "_erc20Contract",
          "type": "address"
        }
      ],
      "name": "getPoolReserveMin",
      "outputs": [
        {
          "internalType": "uint256",
          "name": "",
          "type": "uint256"
        }
      ],
      "stateMutability": "view",
      "type": "function",
      "constant": true
    },
    {
      "inputs": [
        {
          "internalType": "address",
          "name": "_erc20Contract",
          "type": "address"
        },
        {
          "internalType": "address",
          "name": "_cErc20Contract",
          "type": "address"
        }
      ],
      "name": "updateReserve",
      "outputs": [
        {
          "internalType": "bool",
          "name": "",
          "type": "bool"
        }
      ],
      "stateMutability": "nonpayable",
      "type": "function"
    },
    {
      "inputs": [
        {
          "internalType": "address",
          "name": "_erc20Contract",
          "type": "address"
        },
        {
          "internalType": "uint256",
          "name": "amount",
          "type": "uint256"
        }
      ],
      "name": "fillReserve",
      "outputs": [
        {
          "internalType": "bool",
          "name": "",
          "type": "bool"
        }
      ],
      "stateMutability": "nonpayable",
      "type": "function"
    },
    {
      "inputs": [
        {
          "internalType": "address",
          "name": "_erc20Contract",
          "type": "address"
        },
        {
          "internalType": "address",
          "name": "_cErc20Contract",
          "type": "address"
        },
        {
          "internalType": "uint256",
          "name": "_numTokensToSupply",
          "type": "uint256"
        }
      ],
      "name": "depositErc20",
      "outputs": [
        {
          "internalType": "uint256",
          "name": "",
          "type": "uint256"
        }
      ],
      "stateMutability": "nonpayable",
      "type": "function"
    },
    {
      "inputs": [
        {
          "internalType": "address",
          "name": "_erc20Contract",
          "type": "address"
        },
        {
          "internalType": "uint256",
          "name": "amount",
          "type": "uint256"
        }
      ],
      "name": "withdrawErc20Tokens",
      "outputs": [
        {
          "internalType": "bool",
          "name": "",
          "type": "bool"
        }
      ],
      "stateMutability": "nonpayable",
      "type": "function"
    }
  ],
  "bytecode": "0x608060405234801561001057600080fd5b5061125d806100206000396000f3fe6080604052600436106100595760003560e01c80632898da20146100655780633dfb76f8146100a25780634c56b363146100df5780638c2357ad1461011c578063b1bca5f214610159578063fcb8146e1461019657610060565b3661006057005b600080fd5b34801561007157600080fd5b5061008c60048036038101906100879190610e1f565b6101d3565b6040516100999190610f92565b60405180910390f35b3480156100ae57600080fd5b506100c960048036038101906100c49190610d8c565b61032e565b6040516100d69190610f92565b60405180910390f35b3480156100eb57600080fd5b5061010660048036038101906101019190610dcc565b6104e8565b6040516101139190610fcd565b60405180910390f35b34801561012857600080fd5b50610143600480360381019061013e9190610e1f565b61084a565b6040516101509190610f92565b60405180910390f35b34801561016557600080fd5b50610180600480360381019061017b9190610d5f565b6108a2565b60405161018d9190610fcd565b60405180910390f35b3480156101a257600080fd5b506101bd60048036038101906101b89190610e1f565b6108ee565b6040516101ca9190610f92565b60405180910390f35b600080600460008573ffffffffffffffffffffffffffffffffffffffff1673ffffffffffffffffffffffffffffffffffffffff16815260200190815260200160002060009054906101000a900473ffffffffffffffffffffffffffffffffffffffff16905060008190508073ffffffffffffffffffffffffffffffffffffffff1663852a12e3856040518263ffffffff1660e01b81526004016102769190610fcd565b602060405180830381600087803b15801561029057600080fd5b505af11580156102a4573d6000803e3d6000fd5b505050506040513d601f19601f820116820180604052508101906102c89190610e8c565b5083600360008773ffffffffffffffffffffffffffffffffffffffff1673ffffffffffffffffffffffffffffffffffffffff168152602001908152602001600020600001600082825461031b9190610ff9565b9250508190555060019250505092915050565b60008083905060008390506000600360008773ffffffffffffffffffffffffffffffffffffffff1673ffffffffffffffffffffffffffffffffffffffff16815260200190815260200160002090508060010154816000015411156104db576000816001015482600001546103a291906110da565b90508373ffffffffffffffffffffffffffffffffffffffff1663095ea7b387836040518363ffffffff1660e01b81526004016103df929190610f69565b602060405180830381600087803b1580156103f957600080fd5b505af115801561040d573d6000803e3d6000fd5b505050506040513d601f19601f820116820180604052508101906104319190610e5f565b508273ffffffffffffffffffffffffffffffffffffffff1663a0712d68826040518263ffffffff1660e01b815260040161046b9190610fcd565b602060405180830381600087803b15801561048557600080fd5b505af1158015610499573d6000803e3d6000fd5b505050506040513d601f19601f820116820180604052508101906104bd9190610e8c565b50808260000160008282546104d291906110da565b92505081905550505b6001935050505092915050565b600080849050600084905060008173ffffffffffffffffffffffffffffffffffffffff1663bd6d894d6040518163ffffffff1660e01b8152600401602060405180830381600087803b15801561053d57600080fd5b505af1158015610551573d6000803e3d6000fd5b505050506040513d601f19601f820116820180604052508101906105759190610e8c565b90506000600260003373ffffffffffffffffffffffffffffffffffffffff1673ffffffffffffffffffffffffffffffffffffffff168152602001908152602001600020905060008160000160008a73ffffffffffffffffffffffffffffffffffffffff1673ffffffffffffffffffffffffffffffffffffffff1681526020019081526020016000209050868160010160008282546106139190610ff9565b92505081905550600083886106289190611080565b905087600360008c73ffffffffffffffffffffffffffffffffffffffff1673ffffffffffffffffffffffffffffffffffffffff168152602001908152602001600020600001600082825461067c9190610ff9565b925050819055508573ffffffffffffffffffffffffffffffffffffffff166323b872dd33308b6040518463ffffffff1660e01b81526004016106c093929190610f32565b602060405180830381600087803b1580156106da57600080fd5b505af11580156106ee573d6000803e3d6000fd5b505050506040513d601f19601f820116820180604052508101906107129190610e5f565b50808260000160008282546107279190610ff9565b9250508190555088600460008c73ffffffffffffffffffffffffffffffffffffffff1673ffffffffffffffffffffffffffffffffffffffff16815260200190815260200160002060006101000a81548173ffffffffffffffffffffffffffffffffffffffff021916908373ffffffffffffffffffffffffffffffffffffffff1602179055503073ffffffffffffffffffffffffffffffffffffffff16633dfb76f88b8b6040518363ffffffff1660e01b81526004016107e7929190610f09565b602060405180830381600087803b15801561080157600080fd5b505af1158015610815573d6000803e3d6000fd5b505050506040513d601f19601f820116820180604052508101906108399190610e5f565b508096505050505050509392505050565b600080600360008573ffffffffffffffffffffffffffffffffffffffff1673ffffffffffffffffffffffffffffffffffffffff1681526020019081526020016000209050828160010181905550600191505092915050565b6000600360008373ffffffffffffffffffffffffffffffffffffffff1673ffffffffffffffffffffffffffffffffffffffff168152602001908152602001600020600101549050919050565b600080600460008573ffffffffffffffffffffffffffffffffffffffff1673ffffffffffffffffffffffffffffffffffffffff16815260200190815260200160002060009054906101000a900473ffffffffffffffffffffffffffffffffffffffff169050600084905060008290506000600260003373ffffffffffffffffffffffffffffffffffffffff1673ffffffffffffffffffffffffffffffffffffffff168152602001908152602001600020905060008273ffffffffffffffffffffffffffffffffffffffff1663bd6d894d6040518163ffffffff1660e01b8152600401602060405180830381600087803b1580156109ea57600080fd5b505af11580156109fe573d6000803e3d6000fd5b505050506040513d601f19601f82011682018060405250810190610a229190610e8c565b905060008260000160008a73ffffffffffffffffffffffffffffffffffffffff1673ffffffffffffffffffffffffffffffffffffffff16815260200190815260200160002090506000828260000154610a7b919061104f565b9050888111610abf576040517f08c379a0000000000000000000000000000000000000000000000000000000008152600401610ab690610fad565b60405180910390fd5b6000826001015482610ad191906110da565b905060008060007f66656550657263656e74000000000000000000000000000000000000000000008152602001908152602001600020548285600101548d610b19919061104f565b610b239190611080565b610b2d9190611080565b905080846001016000828254610b4391906110da565b925050819055508a846001016000828254610b5e91906110da565b925050819055506000600360008e73ffffffffffffffffffffffffffffffffffffffff1673ffffffffffffffffffffffffffffffffffffffff16815260200190815260200160002090508b81600001541015610c43573073ffffffffffffffffffffffffffffffffffffffff16632898da208e8e6040518363ffffffff1660e01b8152600401610bef929190610f69565b602060405180830381600087803b158015610c0957600080fd5b505af1158015610c1d573d6000803e3d6000fd5b505050506040513d601f19601f82011682018060405250810190610c419190610e5f565b505b8873ffffffffffffffffffffffffffffffffffffffff1663a9059cbb338e6040518363ffffffff1660e01b8152600401610c7e929190610f69565b602060405180830381600087803b158015610c9857600080fd5b505af1158015610cac573d6000803e3d6000fd5b505050506040513d601f19601f82011682018060405250810190610cd09190610e5f565b50858c610cdd9190611080565b856000016000828254610cf091906110da565b9250508190555060019a505050505050505050505092915050565b600081359050610d1a816111e2565b92915050565b600081519050610d2f816111f9565b92915050565b600081359050610d4481611210565b92915050565b600081519050610d5981611210565b92915050565b600060208284031215610d7557610d746111b4565b5b6000610d8384828501610d0b565b91505092915050565b60008060408385031215610da357610da26111b4565b5b6000610db185828601610d0b565b9250506020610dc285828601610d0b565b9150509250929050565b600080600060608486031215610de557610de46111b4565b5b6000610df386828701610d0b565b9350506020610e0486828701610d0b565b9250506040610e1586828701610d35565b9150509250925092565b60008060408385031215610e3657610e356111b4565b5b6000610e4485828601610d0b565b9250506020610e5585828601610d35565b9150509250929050565b600060208284031215610e7557610e746111b4565b5b6000610e8384828501610d20565b91505092915050565b600060208284031215610ea257610ea16111b4565b5b6000610eb084828501610d4a565b91505092915050565b610ec28161110e565b82525050565b610ed181611120565b82525050565b6000610ee4601b83610fe8565b9150610eef826111b9565b602082019050919050565b610f038161114c565b82525050565b6000604082019050610f1e6000830185610eb9565b610f2b6020830184610eb9565b9392505050565b6000606082019050610f476000830186610eb9565b610f546020830185610eb9565b610f616040830184610efa565b949350505050565b6000604082019050610f7e6000830185610eb9565b610f8b6020830184610efa565b9392505050565b6000602082019050610fa76000830184610ec8565b92915050565b60006020820190508181036000830152610fc681610ed7565b9050919050565b6000602082019050610fe26000830184610efa565b92915050565b600082825260208201905092915050565b60006110048261114c565b915061100f8361114c565b9250827fffffffffffffffffffffffffffffffffffffffffffffffffffffffffffffffff0382111561104457611043611156565b5b828201905092915050565b600061105a8261114c565b91506110658361114c565b92508261107557611074611185565b5b828204905092915050565b600061108b8261114c565b91506110968361114c565b9250817fffffffffffffffffffffffffffffffffffffffffffffffffffffffffffffffff04831182151516156110cf576110ce611156565b5b828202905092915050565b60006110e58261114c565b91506110f08361114c565b92508282101561110357611102611156565b5b828203905092915050565b60006111198261112c565b9050919050565b60008115159050919050565b600073ffffffffffffffffffffffffffffffffffffffff82169050919050565b6000819050919050565b7f4e487b7100000000000000000000000000000000000000000000000000000000600052601160045260246000fd5b7f4e487b7100000000000000000000000000000000000000000000000000000000600052601260045260246000fd5b600080fd5b7f596f7520646f6e2774206861766520656e6f7567682066756e64730000000000600082015250565b6111eb8161110e565b81146111f657600080fd5b50565b61120281611120565b811461120d57600080fd5b50565b6112198161114c565b811461122457600080fd5b5056fea264697066735822122009dded46b19243e9b60763c22e3010dc52ff9a29467cd056a2b8ef50e70483e164736f6c63430008050033",
  "immutableReferences": {},
  "source": "pragma solidity >=0.4.22 <0.9.0;\n\ninterface Erc20 {\n    function approve(address, uint256) external returns (bool);\n\n    function transfer(address, uint256) external returns (bool);\n\n    function transferFrom(address, address, uint256) external returns (bool);\n}\ninterface CErc20 {\n    function mint(uint256) external returns (uint256);\n\n    function approve(address, uint256) external returns (bool);\n\n    function exchangeRateCurrent() external returns (uint256);\n\n    function supplyRatePerBlock() external returns (uint256);\n\n    function redeem(uint) external returns (uint);\n\n    function redeemUnderlying(uint) external returns (uint);\n\n    function transfer(address, uint256) external returns (bool);\n}\ninterface CEth {\n    function mint() external payable;\n\n    function exchangeRateCurrent() external returns (uint256);\n\n    function supplyRatePerBlock() external returns (uint256);\n\n    function redeem(uint) external returns (uint);\n\n    function redeemUnderlying(uint) external returns (uint);\n}\n\n\n\ninterface IRecursive {\n    function updateReserve(\n        address _erc20Contract,\n        address _cErc20Contract) external returns (bool);\n\n    function fillReserve(\n            address _erc20Contract,\n            uint256 amount) external returns (bool);\n}\n\n\ncontract NestDeposit is IRecursive {\n    mapping(bytes32 => uint256) internal nameNumberParameters;\n    mapping(address => uint256) internal addressNumberParameters;\n\n    struct Pool {\n        uint256 balance;\n        uint256 reserve;\n        uint256 performanceFee;\n        uint256 managementFee;\n    }\n\n    struct Token {\n        uint256 balance;\n        uint256 deposit;\n    }\n\n    struct Account {\n        mapping(address => Token) tokens;\n    }\n\n    mapping(address => Account) internal accounts;\n\n    mapping(address => Pool) internal pools;\n\n    mapping(address => address) internal marketPairs;\n\n    event MyLog(string, uint256);\n\n    event DepositMade(address pool, address cerc20, address from, uint256 amount);\n\n    event WithdrawalMade(address pool, address cerc20, address to, uint256 amount);\n\n    function setPoolReserveMin(address _erc20Contract, uint256 amount) external returns(bool){\n        Pool storage pool = pools[_erc20Contract];\n        pool.reserve = amount;\n        return true;\n    }\n\n    function getPoolReserveMin(address _erc20Contract) external view returns(uint256){\n        return pools[_erc20Contract].reserve;\n    }\n\n    function updateReserve(\n        address _erc20Contract,\n        address _cErc20Contract) external override returns (bool) {\n\n        // Create a reference to the underlying asset contract, like DAI.\n        Erc20 underlying = Erc20(_erc20Contract);\n\n        // Create a reference to the corresponding cToken contract, like cDAI\n        CErc20 cToken = CErc20(_cErc20Contract);\n\n        // Update pool balance\n        Pool storage pool = pools[_erc20Contract];\n        if(pool.balance > pool.reserve ) {\n            uint256 amount = pool.balance - pool.reserve;\n            underlying.approve(_cErc20Contract, amount);\n            cToken.mint((amount));\n\n             // Update pool balance\n            pool.balance -= amount;\n        }\n\n        return true;\n    }\n\n       function fillReserve(\n            address _erc20Contract,\n            uint256 amount) external override returns (bool) {\n\n        // Get valid cERC20 address from previous succesful deposit\n        address _cErc20Contract = marketPairs[_erc20Contract];\n\n        // Create a reference to the corresponding cToken contract, like cDAI\n        CErc20 cToken = CErc20(_cErc20Contract);\n\n        // Redeem underlying\n        cToken.redeemUnderlying(amount);\n\n        // Update pool balance\n        pools[_erc20Contract].balance += amount;\n\n        return true;\n    }\n    function depositErc20(\n        address _erc20Contract,\n        address _cErc20Contract,\n        uint256 _numTokensToSupply\n    ) public returns (uint256) {        \n        // Create a reference to the underlying asset contract, like DAI.\n        Erc20 underlying = Erc20(_erc20Contract);\n\n        // Create a reference to the corresponding cToken contract, like cDAI\n        CErc20 cToken = CErc20(_cErc20Contract);\n\n        // Get exchange rate\n        uint256 exchangeRateMantissa = cToken.exchangeRateCurrent();\n\n        // Approve transfer on the ERC20 contract\n        // underlying.approve(_cErc20Contract, _numTokensToSupply);\n\n        //  Record tokens\n        // Get user account\n        Account storage account = accounts[msg.sender];\n\n        // Save deposit\n        Token storage token = account.tokens[_erc20Contract];\n\n        // Calculate interest\n\n        // Save amount being deposited\n        token.deposit += _numTokensToSupply;\n\n    \n        // Calculate cToken value\n        uint256 mintResult = _numTokensToSupply*exchangeRateMantissa;\n\n        // Update pool balance\n        pools[_erc20Contract].balance += _numTokensToSupply;\n\n        // Check allowance\n        // underlying.allowance(address(this), address(this));\n\n        // Give this contract the ERC20 Tokens\n        underlying.transferFrom(msg.sender, address(this), _numTokensToSupply);\n\n        // Calculate current balance  and add new balance to it\n        token.balance += mintResult;\n\n        // Save valid Erc20 to cErc20 pair\n        marketPairs[_erc20Contract] = _cErc20Contract;\n\n        // Check if we should mint\n        IRecursive(address(this)).updateReserve(_erc20Contract, _cErc20Contract);\n\n        return mintResult;\n    }\n\n\n    function withdrawErc20Tokens(\n        address _erc20Contract,\n        uint256 amount\n    ) public returns (bool) {\n        // Get valid cERC20 address from previous succesful deposit\n        address _cErc20Contract = marketPairs[_erc20Contract];\n\n        // Create a reference to the underlying asset contract, like DAI.\n        Erc20 underlying = Erc20(_erc20Contract);\n\n        // Create a reference to the corresponding cToken contract, like cDAI\n        CErc20 cToken = CErc20(_cErc20Contract);\n\n        // Get user account\n        Account storage account = accounts[msg.sender];\n\n        // Get exchange rate\n        uint256 exchangeRateMantissa = cToken.exchangeRateCurrent();\n\n        // Check if user has enough funds\n        Token storage token = account.tokens[_erc20Contract];\n\n        // Calculate current underlying\n        uint256 underlyingAmount = token.balance / exchangeRateMantissa;\n\n        require(underlyingAmount > amount, \"You don't have enough funds\");\n\n        // Calculate interest and subtract fees\n        uint256 interest = underlyingAmount - token.deposit;\n        uint256 fees = (amount/token.deposit)*interest*nameNumberParameters[\"feePercent\"];\n\n        // Subtract erc token and fees\n        token.deposit -= fees;\n        token.deposit -= amount;\n\n        // Get pool\n        Pool storage pool = pools[_erc20Contract];\n\n        if(pool.balance < amount) {\n            // Redeem underlying\n            IRecursive(address(this)).fillReserve(_erc20Contract, amount);\n        }\n\n        underlying.transfer(msg.sender, amount);\n\n        // Subtract cTokens\n        token.balance -= amount*exchangeRateMantissa;\n\n        return true;\n    }\n\n     receive() external payable {\n            // React to receiving ether\n     }\n}",
  "sourcePath": "/Users/victoria/projects/nest/contracts/NestDeposit.sol",
  "compiler": {
    "name": "solc",
    "version": "0.8.5+commit.a4f2e591.Emscripten.clang"
  },
  "schemaVersion": "3.4.1",
  "updatedAt": "2021-12-08T13:42:35.979Z",
  "networkType": "ethereum",
  "devdoc": {
    "kind": "dev",
    "methods": {},
    "version": 1
  },
  "userdoc": {
    "kind": "user",
    "methods": {},
    "version": 1
  }
}