{
  "contractName": "NestDeposit",
  "abi": [
    {
      "anonymous": false,
      "inputs": [
        {
          "indexed": false,
          "internalType": "address",
          "name": "pool",
          "type": "address"
        },
        {
          "indexed": false,
          "internalType": "address",
          "name": "cerc20",
          "type": "address"
        },
        {
          "indexed": false,
          "internalType": "address",
          "name": "from",
          "type": "address"
        },
        {
          "indexed": false,
          "internalType": "uint256",
          "name": "amount",
          "type": "uint256"
        }
      ],
      "name": "DepositMade",
      "type": "event"
    },
    {
      "anonymous": false,
      "inputs": [
        {
          "indexed": false,
          "internalType": "string",
          "name": "",
          "type": "string"
        },
        {
          "indexed": false,
          "internalType": "uint256",
          "name": "",
          "type": "uint256"
        }
      ],
      "name": "MyLog",
      "type": "event"
    },
    {
      "anonymous": false,
      "inputs": [
        {
          "indexed": false,
          "internalType": "address",
          "name": "pool",
          "type": "address"
        },
        {
          "indexed": false,
          "internalType": "address",
          "name": "cerc20",
          "type": "address"
        },
        {
          "indexed": false,
          "internalType": "address",
          "name": "to",
          "type": "address"
        },
        {
          "indexed": false,
          "internalType": "uint256",
          "name": "amount",
          "type": "uint256"
        }
      ],
      "name": "WithdrawalMade",
      "type": "event"
    },
    {
      "stateMutability": "nonpayable",
      "type": "fallback"
    },
    {
      "inputs": [
        {
          "internalType": "address",
          "name": "_erc20Contract",
          "type": "address"
        },
        {
          "internalType": "uint256",
          "name": "amount",
          "type": "uint256"
        }
      ],
      "name": "setPoolReserveMin",
      "outputs": [
        {
          "internalType": "bool",
          "name": "",
          "type": "bool"
        }
      ],
      "stateMutability": "nonpayable",
      "type": "function"
    },
    {
      "inputs": [
        {
          "internalType": "address",
          "name": "_erc20Contract",
          "type": "address"
        }
      ],
      "name": "getPoolReserveMin",
      "outputs": [
        {
          "internalType": "uint256",
          "name": "",
          "type": "uint256"
        }
      ],
      "stateMutability": "view",
      "type": "function",
      "constant": true
    },
    {
      "inputs": [
        {
          "internalType": "address",
          "name": "_erc20Contract",
          "type": "address"
        },
        {
          "internalType": "address",
          "name": "_cErc20Contract",
          "type": "address"
        }
      ],
      "name": "updateReserve",
      "outputs": [
        {
          "internalType": "bool",
          "name": "",
          "type": "bool"
        }
      ],
      "stateMutability": "nonpayable",
      "type": "function"
    },
    {
      "inputs": [
        {
          "internalType": "address",
          "name": "_erc20Contract",
          "type": "address"
        },
        {
          "internalType": "uint256",
          "name": "amount",
          "type": "uint256"
        }
      ],
      "name": "fillReserve",
      "outputs": [
        {
          "internalType": "bool",
          "name": "",
          "type": "bool"
        }
      ],
      "stateMutability": "nonpayable",
      "type": "function"
    },
    {
      "inputs": [
        {
          "internalType": "address",
          "name": "_erc20Contract",
          "type": "address"
        },
        {
          "internalType": "uint256",
          "name": "_numTokensToSupply",
          "type": "uint256"
        }
      ],
      "name": "depositErc20",
      "outputs": [
        {
          "internalType": "uint256",
          "name": "",
          "type": "uint256"
        }
      ],
      "stateMutability": "nonpayable",
      "type": "function"
    },
    {
      "inputs": [
        {
          "internalType": "address",
          "name": "_erc20Contract",
          "type": "address"
        },
        {
          "internalType": "uint256",
          "name": "amount",
          "type": "uint256"
        }
      ],
      "name": "withdrawErc20Tokens",
      "outputs": [
        {
          "internalType": "bool",
          "name": "",
          "type": "bool"
        }
      ],
      "stateMutability": "nonpayable",
      "type": "function"
    },
    {
      "inputs": [
        {
          "internalType": "address",
          "name": "_erc20Contract",
          "type": "address"
        },
        {
          "internalType": "address",
          "name": "recipient",
          "type": "address"
        },
        {
          "internalType": "uint256",
          "name": "amount",
          "type": "uint256"
        }
      ],
      "name": "transferErc20Tokens",
      "outputs": [
        {
          "internalType": "bool",
          "name": "",
          "type": "bool"
        }
      ],
      "stateMutability": "nonpayable",
      "type": "function"
    },
    {
      "inputs": [
        {
          "internalType": "address",
          "name": "_erc20Contract",
          "type": "address"
        }
      ],
      "name": "getBalance",
      "outputs": [
        {
          "internalType": "uint256",
          "name": "",
          "type": "uint256"
        }
      ],
      "stateMutability": "nonpayable",
      "type": "function"
    },
    {
      "inputs": [
        {
          "internalType": "address",
          "name": "erc",
          "type": "address"
        },
        {
          "internalType": "address",
          "name": "market",
          "type": "address"
        }
      ],
      "name": "setMarketPair",
      "outputs": [
        {
          "internalType": "bool",
          "name": "",
          "type": "bool"
        }
      ],
      "stateMutability": "nonpayable",
      "type": "function"
    },
    {
      "inputs": [
        {
          "internalType": "address",
          "name": "erc",
          "type": "address"
        }
      ],
      "name": "getMarketPair",
      "outputs": [
        {
          "internalType": "address",
          "name": "",
          "type": "address"
        }
      ],
      "stateMutability": "view",
      "type": "function",
      "constant": true
    },
    {
      "inputs": [
        {
          "internalType": "address",
          "name": "erc",
          "type": "address"
        },
        {
          "internalType": "uint256",
          "name": "fee",
          "type": "uint256"
        }
      ],
      "name": "setFeeRate",
      "outputs": [
        {
          "internalType": "bool",
          "name": "",
          "type": "bool"
        }
      ],
      "stateMutability": "nonpayable",
      "type": "function"
    },
    {
      "inputs": [],
      "name": "changeOwner",
      "outputs": [
        {
          "internalType": "bool",
          "name": "",
          "type": "bool"
        }
      ],
      "stateMutability": "nonpayable",
      "type": "function"
    }
  ],
  "bytecode": "0x6080604052336000806101000a81548173ffffffffffffffffffffffffffffffffffffffff021916908373ffffffffffffffffffffffffffffffffffffffff16021790555034801561005057600080fd5b50611739806100606000396000f3fe608060405234801561001057600080fd5b50600436106100b85760003560e01c80638013519d116100715780638013519d146101c95780638c2357ad146101f9578063942dc57314610229578063b1bca5f214610259578063f8b2cb4f14610289578063fcb8146e146102b9576100b9565b806322f902bd146100bb5780632898da20146100eb5780633dfb76f81461011b57806362a094771461014b5780636548b40d1461016957806372470d6514610199576100b9565b5b005b6100d560048036038101906100d09190611221565b6102e9565b6040516100e29190611425565b60405180910390f35b61010560048036038101906101009190611274565b61067a565b6040516101129190611425565b60405180910390f35b610135600480360381019061013091906111e1565b6107d5565b6040516101429190611425565b60405180910390f35b61015361098f565b6040516101609190611425565b60405180910390f35b610183600480360381019061017e9190611274565b610a67565b6040516101909190611480565b60405180910390f35b6101b360048036038101906101ae91906111b4565b610daf565b6040516101c09190611381565b60405180910390f35b6101e360048036038101906101de91906111e1565b610e18565b6040516101f09190611425565b60405180910390f35b610213600480360381019061020e9190611274565b610f31565b6040516102209190611425565b60405180910390f35b610243600480360381019061023e9190611274565b610f89565b6040516102509190611425565b60405180910390f35b610273600480360381019061026e91906111b4565b611068565b6040516102809190611480565b60405180910390f35b6102a3600480360381019061029e91906111b4565b6110b4565b6040516102b09190611480565b60405180910390f35b6102d360048036038101906102ce9190611274565b61114b565b6040516102e09190611425565b60405180910390f35b600080600360008673ffffffffffffffffffffffffffffffffffffffff1673ffffffffffffffffffffffffffffffffffffffff16815260200190815260200160002060009054906101000a900473ffffffffffffffffffffffffffffffffffffffff169050600085905060008290506000600160003373ffffffffffffffffffffffffffffffffffffffff1673ffffffffffffffffffffffffffffffffffffffff168152602001908152602001600020905060008273ffffffffffffffffffffffffffffffffffffffff1663bd6d894d6040518163ffffffff1660e01b8152600401602060405180830381600087803b1580156103e557600080fd5b505af11580156103f9573d6000803e3d6000fd5b505050506040513d601f19601f8201168201806040525081019061041d91906112e1565b905060008260000160008b73ffffffffffffffffffffffffffffffffffffffff1673ffffffffffffffffffffffffffffffffffffffff168152602001908152602001600020905060008282600001546104769190611502565b90508881116104ba576040517f08c379a00000000000000000000000000000000000000000000000000000000081526004016104b190611460565b60405180910390fd5b888260010160008282546104ce919061158d565b925050819055506000600260008d73ffffffffffffffffffffffffffffffffffffffff1673ffffffffffffffffffffffffffffffffffffffff168152602001908152602001600020905089816000015410156105b3573073ffffffffffffffffffffffffffffffffffffffff16632898da208d8c6040518363ffffffff1660e01b815260040161055f9291906113fc565b602060405180830381600087803b15801561057957600080fd5b505af115801561058d573d6000803e3d6000fd5b505050506040513d601f19601f820116820180604052508101906105b191906112b4565b505b8673ffffffffffffffffffffffffffffffffffffffff1663a9059cbb8c8c6040518363ffffffff1660e01b81526004016105ee9291906113fc565b602060405180830381600087803b15801561060857600080fd5b505af115801561061c573d6000803e3d6000fd5b505050506040513d601f19601f8201168201806040525081019061064091906112b4565b50838a61064d9190611533565b836000016000828254610660919061158d565b925050819055506001985050505050505050509392505050565b600080600360008573ffffffffffffffffffffffffffffffffffffffff1673ffffffffffffffffffffffffffffffffffffffff16815260200190815260200160002060009054906101000a900473ffffffffffffffffffffffffffffffffffffffff16905060008190508073ffffffffffffffffffffffffffffffffffffffff1663852a12e3856040518263ffffffff1660e01b815260040161071d9190611480565b602060405180830381600087803b15801561073757600080fd5b505af115801561074b573d6000803e3d6000fd5b505050506040513d601f19601f8201168201806040525081019061076f91906112e1565b5083600260008773ffffffffffffffffffffffffffffffffffffffff1673ffffffffffffffffffffffffffffffffffffffff16815260200190815260200160002060000160008282546107c291906114ac565b9250508190555060019250505092915050565b60008083905060008390506000600260008773ffffffffffffffffffffffffffffffffffffffff1673ffffffffffffffffffffffffffffffffffffffff168152602001908152602001600020905080600101548160000154111561098257600081600101548260000154610849919061158d565b90508373ffffffffffffffffffffffffffffffffffffffff1663095ea7b387836040518363ffffffff1660e01b81526004016108869291906113fc565b602060405180830381600087803b1580156108a057600080fd5b505af11580156108b4573d6000803e3d6000fd5b505050506040513d601f19601f820116820180604052508101906108d891906112b4565b508273ffffffffffffffffffffffffffffffffffffffff1663a0712d68826040518263ffffffff1660e01b81526004016109129190611480565b602060405180830381600087803b15801561092c57600080fd5b505af1158015610940573d6000803e3d6000fd5b505050506040513d601f19601f8201168201806040525081019061096491906112e1565b5080826000016000828254610979919061158d565b92505081905550505b6001935050505092915050565b60008060009054906101000a900473ffffffffffffffffffffffffffffffffffffffff1673ffffffffffffffffffffffffffffffffffffffff163373ffffffffffffffffffffffffffffffffffffffff1614610a20576040517f08c379a0000000000000000000000000000000000000000000000000000000008152600401610a1790611440565b60405180910390fd5b336000806101000a81548173ffffffffffffffffffffffffffffffffffffffff021916908373ffffffffffffffffffffffffffffffffffffffff1602179055506001905090565b6000808390506000600360008673ffffffffffffffffffffffffffffffffffffffff1673ffffffffffffffffffffffffffffffffffffffff16815260200190815260200160002060009054906101000a900473ffffffffffffffffffffffffffffffffffffffff169050600081905060008173ffffffffffffffffffffffffffffffffffffffff1663bd6d894d6040518163ffffffff1660e01b8152600401602060405180830381600087803b158015610b2057600080fd5b505af1158015610b34573d6000803e3d6000fd5b505050506040513d601f19601f82011682018060405250810190610b5891906112e1565b90506000600160003373ffffffffffffffffffffffffffffffffffffffff1673ffffffffffffffffffffffffffffffffffffffff168152602001908152602001600020905060008160000160008a73ffffffffffffffffffffffffffffffffffffffff1673ffffffffffffffffffffffffffffffffffffffff168152602001908152602001600020905087816001016000828254610bf691906114ac565b9250508190555060008389610c0b9190611533565b905088600260008c73ffffffffffffffffffffffffffffffffffffffff1673ffffffffffffffffffffffffffffffffffffffff1681526020019081526020016000206000016000828254610c5f91906114ac565b925050819055508673ffffffffffffffffffffffffffffffffffffffff166323b872dd33308c6040518463ffffffff1660e01b8152600401610ca3939291906113c5565b602060405180830381600087803b158015610cbd57600080fd5b505af1158015610cd1573d6000803e3d6000fd5b505050506040513d601f19601f82011682018060405250810190610cf591906112b4565b5080826000016000828254610d0a91906114ac565b925050819055503073ffffffffffffffffffffffffffffffffffffffff16633dfb76f88b886040518363ffffffff1660e01b8152600401610d4c92919061139c565b602060405180830381600087803b158015610d6657600080fd5b505af1158015610d7a573d6000803e3d6000fd5b505050506040513d601f19601f82011682018060405250810190610d9e91906112b4565b508097505050505050505092915050565b6000600360008373ffffffffffffffffffffffffffffffffffffffff1673ffffffffffffffffffffffffffffffffffffffff16815260200190815260200160002060009054906101000a900473ffffffffffffffffffffffffffffffffffffffff169050919050565b60008060009054906101000a900473ffffffffffffffffffffffffffffffffffffffff1673ffffffffffffffffffffffffffffffffffffffff163373ffffffffffffffffffffffffffffffffffffffff1614610ea9576040517f08c379a0000000000000000000000000000000000000000000000000000000008152600401610ea090611440565b60405180910390fd5b81600360008573ffffffffffffffffffffffffffffffffffffffff1673ffffffffffffffffffffffffffffffffffffffff16815260200190815260200160002060006101000a81548173ffffffffffffffffffffffffffffffffffffffff021916908373ffffffffffffffffffffffffffffffffffffffff1602179055506001905092915050565b600080600260008573ffffffffffffffffffffffffffffffffffffffff1673ffffffffffffffffffffffffffffffffffffffff1681526020019081526020016000209050828160010181905550600191505092915050565b60008060009054906101000a900473ffffffffffffffffffffffffffffffffffffffff1673ffffffffffffffffffffffffffffffffffffffff163373ffffffffffffffffffffffffffffffffffffffff161461101a576040517f08c379a000000000000000000000000000000000000000000000000000000000815260040161101190611440565b60405180910390fd5b81600460008573ffffffffffffffffffffffffffffffffffffffff1673ffffffffffffffffffffffffffffffffffffffff168152602001908152602001600020819055506001905092915050565b6000600260008373ffffffffffffffffffffffffffffffffffffffff1673ffffffffffffffffffffffffffffffffffffffff168152602001908152602001600020600101549050919050565b600080600160003373ffffffffffffffffffffffffffffffffffffffff1673ffffffffffffffffffffffffffffffffffffffff168152602001908152602001600020905060008160000160008573ffffffffffffffffffffffffffffffffffffffff1673ffffffffffffffffffffffffffffffffffffffff1681526020019081526020016000209050806000015492505050919050565b60006111588333846102e9565b905092915050565b60008135905061116f816116be565b92915050565b600081519050611184816116d5565b92915050565b600081359050611199816116ec565b92915050565b6000815190506111ae816116ec565b92915050565b6000602082840312156111ca576111c9611667565b5b60006111d884828501611160565b91505092915050565b600080604083850312156111f8576111f7611667565b5b600061120685828601611160565b925050602061121785828601611160565b9150509250929050565b60008060006060848603121561123a57611239611667565b5b600061124886828701611160565b935050602061125986828701611160565b925050604061126a8682870161118a565b9150509250925092565b6000806040838503121561128b5761128a611667565b5b600061129985828601611160565b92505060206112aa8582860161118a565b9150509250929050565b6000602082840312156112ca576112c9611667565b5b60006112d884828501611175565b91505092915050565b6000602082840312156112f7576112f6611667565b5b60006113058482850161119f565b91505092915050565b611317816115c1565b82525050565b611326816115d3565b82525050565b600061133960128361149b565b91506113448261166c565b602082019050919050565b600061135c601b8361149b565b915061136782611695565b602082019050919050565b61137b816115ff565b82525050565b6000602082019050611396600083018461130e565b92915050565b60006040820190506113b1600083018561130e565b6113be602083018461130e565b9392505050565b60006060820190506113da600083018661130e565b6113e7602083018561130e565b6113f46040830184611372565b949350505050565b6000604082019050611411600083018561130e565b61141e6020830184611372565b9392505050565b600060208201905061143a600083018461131d565b92915050565b600060208201905081810360008301526114598161132c565b9050919050565b600060208201905081810360008301526114798161134f565b9050919050565b60006020820190506114956000830184611372565b92915050565b600082825260208201905092915050565b60006114b7826115ff565b91506114c2836115ff565b9250827fffffffffffffffffffffffffffffffffffffffffffffffffffffffffffffffff038211156114f7576114f6611609565b5b828201905092915050565b600061150d826115ff565b9150611518836115ff565b92508261152857611527611638565b5b828204905092915050565b600061153e826115ff565b9150611549836115ff565b9250817fffffffffffffffffffffffffffffffffffffffffffffffffffffffffffffffff048311821515161561158257611581611609565b5b828202905092915050565b6000611598826115ff565b91506115a3836115ff565b9250828210156115b6576115b5611609565b5b828203905092915050565b60006115cc826115df565b9050919050565b60008115159050919050565b600073ffffffffffffffffffffffffffffffffffffffff82169050919050565b6000819050919050565b7f4e487b7100000000000000000000000000000000000000000000000000000000600052601160045260246000fd5b7f4e487b7100000000000000000000000000000000000000000000000000000000600052601260045260246000fd5b600080fd5b7f4f6e6c79206f776e657220616c6c6f7765640000000000000000000000000000600082015250565b7f596f7520646f6e2774206861766520656e6f7567682066756e64730000000000600082015250565b6116c7816115c1565b81146116d257600080fd5b50565b6116de816115d3565b81146116e957600080fd5b50565b6116f5816115ff565b811461170057600080fd5b5056fea2646970667358221220a48c3f7bfedaaf13b70bc6866e647b1b181c9d9ed841aec1bdd2e2c61d9c894e64736f6c63430008050033",
  "immutableReferences": {},
  "source": "pragma solidity >=0.4.22 <0.9.0;\n\ninterface Erc20 {\n    function approve(address, uint256) external returns (bool);\n\n    function transfer(address, uint256) external returns (bool);\n\n    function transferFrom(address, address, uint256) external returns (bool);\n}\ninterface CErc20 {\n    function mint(uint256) external returns (uint256);\n\n    function approve(address, uint256) external returns (bool);\n\n    function exchangeRateCurrent() external returns (uint256);\n\n    function supplyRatePerBlock() external returns (uint256);\n\n    function redeem(uint) external returns (uint);\n\n    function redeemUnderlying(uint) external returns (uint);\n\n    function transfer(address, uint256) external returns (bool);\n}\ninterface CEth {\n    function mint() external payable;\n\n    function exchangeRateCurrent() external returns (uint256);\n\n    function supplyRatePerBlock() external returns (uint256);\n\n    function redeem(uint) external returns (uint);\n\n    function redeemUnderlying(uint) external returns (uint);\n}\n\ninterface IRecursive {\n    function updateReserve(\n        address _erc20Contract,\n        address _cErc20Contract) external returns (bool);\n\n    function fillReserve(\n            address _erc20Contract,\n            uint256 amount) external returns (bool);\n}\n\n\ncontract NestDeposit is IRecursive {\n    address owner = msg.sender;\n\n    struct Pool {\n        uint256 balance;\n        uint256 reserve;\n        uint256 performanceFee;\n        uint256 managementFee;\n    }\n\n    struct Token {\n        uint256 balance;\n        uint256 deposit;\n    }\n\n    struct Account {\n        mapping(address => Token) tokens;\n    }\n\n    mapping(address => Account) internal accounts;\n\n    mapping(address => Pool) internal pools;\n\n    mapping(address => address) internal marketPairs;\n\n    mapping(address => uint) internal feeRate;\n\n    event MyLog(string, uint256);\n\n    event DepositMade(address pool, address cerc20, address from, uint256 amount);\n\n    event WithdrawalMade(address pool, address cerc20, address to, uint256 amount);\n\n    modifier onlyOwner{\n        require(msg.sender == owner, \"Only owner allowed\");\n        _;\n    }\n    function setPoolReserveMin(address _erc20Contract, uint256 amount) external returns(bool){\n        Pool storage pool = pools[_erc20Contract];\n        pool.reserve = amount;\n        return true;\n    }\n\n    function getPoolReserveMin(address _erc20Contract) external view returns(uint256){\n        return pools[_erc20Contract].reserve;\n    }\n\n    function updateReserve(\n        address _erc20Contract,\n        address _cErc20Contract) external override returns (bool) {\n\n        // Create a reference to the underlying asset contract, like DAI.\n        Erc20 underlying = Erc20(_erc20Contract);\n\n        // Create a reference to the corresponding cToken contract, like cDAI\n        CErc20 cToken = CErc20(_cErc20Contract);\n\n        // Update pool balance\n        Pool storage pool = pools[_erc20Contract];\n        if(pool.balance > pool.reserve ) {\n            uint256 amount = pool.balance - pool.reserve;\n            underlying.approve(_cErc20Contract, amount);\n            cToken.mint((amount));\n\n             // Update pool balance\n            pool.balance -= amount;\n        }\n\n        return true;\n    }\n    function fillReserve(\n        address _erc20Contract,\n        uint256 amount) external override returns (bool) {\n\n        // Get valid cERC20 address from previous succesful deposit\n        address _cErc20Contract = marketPairs[_erc20Contract];\n\n        // Create a reference to the corresponding cToken contract, like cDAI\n        CErc20 cToken = CErc20(_cErc20Contract);\n\n        // Redeem underlying\n        cToken.redeemUnderlying(amount);\n\n        // Update pool balance\n        pools[_erc20Contract].balance += amount;\n\n        return true;\n    }\n    function depositErc20(\n        address _erc20Contract,\n        uint256 _numTokensToSupply\n    ) public returns (uint256) {        \n        // Create a reference to the underlying asset contract, like DAI.\n        Erc20 underlying = Erc20(_erc20Contract);\n\n        address _cErc20Contract = marketPairs[_erc20Contract];\n\n        // Create a reference to the corresponding cToken contract, like cDAI\n        CErc20 cToken = CErc20(_cErc20Contract);\n\n        // Get exchange rate\n        uint256 exchangeRateMantissa = cToken.exchangeRateCurrent();\n\n        // Get user account\n        Account storage account = accounts[msg.sender];\n\n        // Save deposit\n        Token storage token = account.tokens[_erc20Contract];\n\n        // Save amount being deposited\n        token.deposit += _numTokensToSupply;\n    \n        // Calculate cToken value\n        uint256 mintResult = _numTokensToSupply*exchangeRateMantissa;\n\n        // Update pool balance\n        pools[_erc20Contract].balance += _numTokensToSupply;\n\n        // Give this contract the ERC20 Tokens\n        underlying.transferFrom(msg.sender, address(this), _numTokensToSupply);\n\n        // Calculate current balance  and add new balance to it\n        token.balance += mintResult;\n\n        // Check if we should mint\n        IRecursive(address(this)).updateReserve(_erc20Contract, _cErc20Contract);\n\n        return mintResult;\n    }\n\n    function withdrawErc20Tokens(\n        address _erc20Contract,\n        uint256 amount\n    ) public returns (bool) {\n        return transferErc20Tokens(_erc20Contract, msg.sender, amount);\n    }\n\n    function transferErc20Tokens(\n        address _erc20Contract,\n        address recipient,\n        uint256 amount\n    ) public returns (bool) {\n\n        // Get valid cERC20 address from previous succesful deposit\n        address _cErc20Contract = marketPairs[_erc20Contract];\n\n        // Create a reference to the underlying asset contract, like DAI.\n        Erc20 underlying = Erc20(_erc20Contract);\n\n        // Create a reference to the corresponding cToken contract, like cDAI\n        CErc20 cToken = CErc20(_cErc20Contract);\n\n        // Get user account\n        Account storage account = accounts[msg.sender];\n\n        // Get exchange rate\n        uint256 exchangeRateMantissa = cToken.exchangeRateCurrent();\n\n        // Check if user has enough funds\n        Token storage token = account.tokens[_erc20Contract];\n\n        // Calculate current underlying\n        uint256 underlyingAmount = token.balance / exchangeRateMantissa;\n\n        require(underlyingAmount > amount, \"You don't have enough funds\");\n\n        // Calculate interest and subtract fees\n        // uint256 interest = underlyingAmount - token.deposit;\n        // uint256 fees = (amount/token.deposit)*interest*nameNumberParameters[\"feePercent\"];\n\n        // Subtract erc token and fees\n        // token.deposit -= fees;\n        token.deposit -= amount;\n\n        // Get pool\n        Pool storage pool = pools[_erc20Contract];\n\n        if(pool.balance < amount) {\n            // Redeem underlying\n            IRecursive(address(this)).fillReserve(_erc20Contract, amount);\n        }\n\n        underlying.transfer(recipient, amount);\n\n        // Subtract cTokens\n        token.balance -= amount*exchangeRateMantissa;\n\n        return true;\n    }\n\n    function getBalance(address _erc20Contract) external returns (uint256) {\n        // Get user account\n        Account storage account = accounts[msg.sender];\n        Token storage token = account.tokens[_erc20Contract];\n        return token.balance;\n    }\n\n    function setMarketPair(address erc, address market) external onlyOwner returns (bool) {\n        marketPairs[erc] = market;\n        return true;\n    }\n\n    function getMarketPair(address erc) public view returns (address) {\n        return marketPairs[erc];\n    }\n\n    function setFeeRate(address erc, uint fee) external onlyOwner returns (bool) {\n        feeRate[erc] = fee;\n        return true;\n    }\n\n    function changeOwner() external onlyOwner returns (bool) {\n        owner = msg.sender;\n        return true;\n    }\n\n     fallback() external {\n     }\n}",
  "sourcePath": "/Users/victoria/projects/nest/contracts/NestDeposit.sol",
  "compiler": {
    "name": "solc",
    "version": "0.8.5+commit.a4f2e591.Emscripten.clang"
  },
  "schemaVersion": "3.4.1",
  "updatedAt": "2022-01-26T13:56:06.146Z",
  "networkType": "ethereum",
  "devdoc": {
    "kind": "dev",
    "methods": {},
    "version": 1
  },
  "userdoc": {
    "kind": "user",
    "methods": {},
    "version": 1
  }
}