{
  "contractName": "NestDeposit",
  "abi": [
    {
      "anonymous": false,
      "inputs": [
        {
          "indexed": false,
          "internalType": "string",
          "name": "",
          "type": "string"
        },
        {
          "indexed": false,
          "internalType": "uint256",
          "name": "",
          "type": "uint256"
        }
      ],
      "name": "MyLog",
      "type": "event"
    },
    {
      "stateMutability": "payable",
      "type": "receive",
      "payable": true
    },
    {
      "inputs": [
        {
          "internalType": "address payable",
          "name": "_cEtherContract",
          "type": "address"
        }
      ],
      "name": "supplyEthToCompound",
      "outputs": [
        {
          "internalType": "bool",
          "name": "",
          "type": "bool"
        }
      ],
      "stateMutability": "payable",
      "type": "function",
      "payable": true
    },
    {
      "inputs": [
        {
          "internalType": "address",
          "name": "_erc20Contract",
          "type": "address"
        },
        {
          "internalType": "address",
          "name": "_cErc20Contract",
          "type": "address"
        },
        {
          "internalType": "uint256",
          "name": "_numTokensToSupply",
          "type": "uint256"
        }
      ],
      "name": "supplyErc20ToCompound",
      "outputs": [
        {
          "internalType": "uint256",
          "name": "",
          "type": "uint256"
        }
      ],
      "stateMutability": "nonpayable",
      "type": "function"
    },
    {
      "inputs": [
        {
          "internalType": "uint256",
          "name": "amount",
          "type": "uint256"
        },
        {
          "internalType": "bool",
          "name": "redeemType",
          "type": "bool"
        },
        {
          "internalType": "address",
          "name": "_cErc20Contract",
          "type": "address"
        }
      ],
      "name": "redeemCErc20Tokens",
      "outputs": [
        {
          "internalType": "bool",
          "name": "",
          "type": "bool"
        }
      ],
      "stateMutability": "nonpayable",
      "type": "function"
    },
    {
      "inputs": [
        {
          "internalType": "uint256",
          "name": "amount",
          "type": "uint256"
        },
        {
          "internalType": "bool",
          "name": "redeemType",
          "type": "bool"
        },
        {
          "internalType": "address",
          "name": "_cEtherContract",
          "type": "address"
        }
      ],
      "name": "redeemCEth",
      "outputs": [
        {
          "internalType": "bool",
          "name": "",
          "type": "bool"
        }
      ],
      "stateMutability": "nonpayable",
      "type": "function"
    }
  ],
  "bytecode": "0x608060405234801561001057600080fd5b50610eab806100206000396000f3fe6080604052600436106100435760003560e01c80633b7ba25f1461004f578063a82ffd881461008c578063c6fb5014146100bc578063d0ace48e146100f95761004a565b3661004a57005b600080fd5b34801561005b57600080fd5b506100766004803603810190610071919061096f565b610136565b6040516100839190610c75565b60405180910390f35b6100a660048036038101906100a19190610942565b6103e3565b6040516100b39190610b74565b60405180910390f35b3480156100c857600080fd5b506100e360048036038101906100de9190610a1c565b6105d2565b6040516100f09190610b74565b60405180910390f35b34801561010557600080fd5b50610120600480360381019061011b9190610a1c565b61074b565b60405161012d9190610b74565b60405180910390f35b600080849050600084905060008173ffffffffffffffffffffffffffffffffffffffff1663bd6d894d6040518163ffffffff1660e01b8152600401602060405180830381600087803b15801561018b57600080fd5b505af115801561019f573d6000803e3d6000fd5b505050506040513d601f19601f820116820180604052508101906101c391906109ef565b90507f8d1cced004452bd270777a8c670f9f7e7c4fdde56f2db331fe289d39dc2624ad816040516101f49190610beb565b60405180910390a160008273ffffffffffffffffffffffffffffffffffffffff1663ae9d70b06040518163ffffffff1660e01b8152600401602060405180830381600087803b15801561024657600080fd5b505af115801561025a573d6000803e3d6000fd5b505050506040513d601f19601f8201168201806040525081019061027e91906109ef565b90507f8d1cced004452bd270777a8c670f9f7e7c4fdde56f2db331fe289d39dc2624ad816040516102af9190610c19565b60405180910390a18373ffffffffffffffffffffffffffffffffffffffff1663095ea7b388886040518363ffffffff1660e01b81526004016102f2929190610b4b565b602060405180830381600087803b15801561030c57600080fd5b505af1158015610320573d6000803e3d6000fd5b505050506040513d601f19601f8201168201806040525081019061034491906109c2565b5060008373ffffffffffffffffffffffffffffffffffffffff1663a0712d68886040518263ffffffff1660e01b81526004016103809190610c75565b602060405180830381600087803b15801561039a57600080fd5b505af11580156103ae573d6000803e3d6000fd5b505050506040513d601f19601f820116820180604052508101906103d291906109ef565b905080955050505050509392505050565b60008082905060008173ffffffffffffffffffffffffffffffffffffffff1663bd6d894d6040518163ffffffff1660e01b8152600401602060405180830381600087803b15801561043357600080fd5b505af1158015610447573d6000803e3d6000fd5b505050506040513d601f19601f8201168201806040525081019061046b91906109ef565b90507f8d1cced004452bd270777a8c670f9f7e7c4fdde56f2db331fe289d39dc2624ad8160405161049c9190610bbd565b60405180910390a160008273ffffffffffffffffffffffffffffffffffffffff1663ae9d70b06040518163ffffffff1660e01b8152600401602060405180830381600087803b1580156104ee57600080fd5b505af1158015610502573d6000803e3d6000fd5b505050506040513d601f19601f8201168201806040525081019061052691906109ef565b90507f8d1cced004452bd270777a8c670f9f7e7c4fdde56f2db331fe289d39dc2624ad816040516105579190610c47565b60405180910390a18273ffffffffffffffffffffffffffffffffffffffff16631249c58b346203d090906040518363ffffffff1660e01b81526004016000604051808303818589803b1580156105ac57600080fd5b5088f11580156105c0573d6000803e3d6000fd5b50505050505060019350505050919050565b6000808290506000600115158515151415610679578173ffffffffffffffffffffffffffffffffffffffff1663db006a75876040518263ffffffff1660e01b81526004016106209190610c75565b602060405180830381600087803b15801561063a57600080fd5b505af115801561064e573d6000803e3d6000fd5b505050506040513d601f19601f8201168201806040525081019061067291906109ef565b9050610707565b8173ffffffffffffffffffffffffffffffffffffffff1663852a12e3876040518263ffffffff1660e01b81526004016106b29190610c75565b602060405180830381600087803b1580156106cc57600080fd5b505af11580156106e0573d6000803e3d6000fd5b505050506040513d601f19601f8201168201806040525081019061070491906109ef565b90505b7f8d1cced004452bd270777a8c670f9f7e7c4fdde56f2db331fe289d39dc2624ad816040516107369190610b8f565b60405180910390a16001925050509392505050565b60008082905060006001151585151514156107f2578173ffffffffffffffffffffffffffffffffffffffff1663db006a75876040518263ffffffff1660e01b81526004016107999190610c75565b602060405180830381600087803b1580156107b357600080fd5b505af11580156107c7573d6000803e3d6000fd5b505050506040513d601f19601f820116820180604052508101906107eb91906109ef565b9050610880565b8173ffffffffffffffffffffffffffffffffffffffff1663852a12e3876040518263ffffffff1660e01b815260040161082b9190610c75565b602060405180830381600087803b15801561084557600080fd5b505af1158015610859573d6000803e3d6000fd5b505050506040513d601f19601f8201168201806040525081019061087d91906109ef565b90505b7f8d1cced004452bd270777a8c670f9f7e7c4fdde56f2db331fe289d39dc2624ad816040516108af9190610b8f565b60405180910390a16001925050509392505050565b6000813590506108d381610e19565b92915050565b6000813590506108e881610e30565b92915050565b6000813590506108fd81610e47565b92915050565b60008151905061091281610e47565b92915050565b60008135905061092781610e5e565b92915050565b60008151905061093c81610e5e565b92915050565b60006020828403121561095857610957610cfb565b5b6000610966848285016108d9565b91505092915050565b60008060006060848603121561098857610987610cfb565b5b6000610996868287016108c4565b93505060206109a7868287016108c4565b92505060406109b886828701610918565b9150509250925092565b6000602082840312156109d8576109d7610cfb565b5b60006109e684828501610903565b91505092915050565b600060208284031215610a0557610a04610cfb565b5b6000610a138482850161092d565b91505092915050565b600080600060608486031215610a3557610a34610cfb565b5b6000610a4386828701610918565b9350506020610a54868287016108ee565b9250506040610a65868287016108c4565b9150509250925092565b610a7881610ca1565b82525050565b610a8781610cc5565b82525050565b6000610a9a602483610c90565b9150610aa582610d00565b604082019050919050565b6000610abd602383610c90565b9150610ac882610d4f565b604082019050919050565b6000610ae0601b83610c90565b9150610aeb82610d9e565b602082019050919050565b6000610b03601883610c90565b9150610b0e82610dc7565b602082019050919050565b6000610b26602083610c90565b9150610b3182610df0565b602082019050919050565b610b4581610cf1565b82525050565b6000604082019050610b606000830185610a6f565b610b6d6020830184610b3c565b9392505050565b6000602082019050610b896000830184610a7e565b92915050565b60006040820190508181036000830152610ba881610a8d565b9050610bb76020830184610b3c565b92915050565b60006040820190508181036000830152610bd681610ab0565b9050610be56020830184610b3c565b92915050565b60006040820190508181036000830152610c0481610ad3565b9050610c136020830184610b3c565b92915050565b60006040820190508181036000830152610c3281610af6565b9050610c416020830184610b3c565b92915050565b60006040820190508181036000830152610c6081610b19565b9050610c6f6020830184610b3c565b92915050565b6000602082019050610c8a6000830184610b3c565b92915050565b600082825260208201905092915050565b6000610cac82610cd1565b9050919050565b6000610cbe82610cd1565b9050919050565b60008115159050919050565b600073ffffffffffffffffffffffffffffffffffffffff82169050919050565b6000819050919050565b600080fd5b7f49662074686973206973206e6f7420302c2074686572652077617320616e206560008201527f72726f7200000000000000000000000000000000000000000000000000000000602082015250565b7f45786368616e6765205261746520287363616c6564207570206279203165313860008201527f293a200000000000000000000000000000000000000000000000000000000000602082015250565b7f45786368616e6765205261746520287363616c6564207570293a200000000000600082015250565b7f537570706c7920526174653a20287363616c6564207570290000000000000000600082015250565b7f537570706c7920526174653a20287363616c6564207570206279203165313829600082015250565b610e2281610ca1565b8114610e2d57600080fd5b50565b610e3981610cb3565b8114610e4457600080fd5b50565b610e5081610cc5565b8114610e5b57600080fd5b50565b610e6781610cf1565b8114610e7257600080fd5b5056fea2646970667358221220ce7c4bf5f692626d712b1bf3578bcb9a95c0bccf90502b3359b47052e8ab858c64736f6c63430008050033",
  "immutableReferences": {},
  "source": "pragma solidity >=0.4.22 <0.9.0;\n\n\ninterface Erc20 {\n    function approve(address, uint256) external returns (bool);\n\n    function transfer(address, uint256) external returns (bool);\n}\n\n\ninterface CErc20 {\n    function mint(uint256) external returns (uint256);\n\n    function exchangeRateCurrent() external returns (uint256);\n\n    function supplyRatePerBlock() external returns (uint256);\n\n    function redeem(uint) external returns (uint);\n\n    function redeemUnderlying(uint) external returns (uint);\n}\n\n\ninterface CEth {\n    function mint() external payable;\n\n    function exchangeRateCurrent() external returns (uint256);\n\n    function supplyRatePerBlock() external returns (uint256);\n\n    function redeem(uint) external returns (uint);\n\n    function redeemUnderlying(uint) external returns (uint);\n}\n\n\ncontract NestDeposit {\n    event MyLog(string, uint256);\n\n    function supplyEthToCompound(address payable _cEtherContract)\n        public\n        payable\n        returns (bool)\n    {\n        // Create a reference to the corresponding cToken contract\n        CEth cToken = CEth(_cEtherContract);\n\n        // Amount of current exchange rate from cToken to underlying\n        uint256 exchangeRateMantissa = cToken.exchangeRateCurrent();\n        emit MyLog(\"Exchange Rate (scaled up by 1e18): \", exchangeRateMantissa);\n\n        // Amount added to you supply balance this block\n        uint256 supplyRateMantissa = cToken.supplyRatePerBlock();\n        emit MyLog(\"Supply Rate: (scaled up by 1e18)\", supplyRateMantissa);\n\n        cToken.mint{value: msg.value,gas: 250000}();\n        return true;\n    }\n\n    function supplyErc20ToCompound(\n        address _erc20Contract,\n        address _cErc20Contract,\n        uint256 _numTokensToSupply\n    ) public returns (uint) {\n        // Create a reference to the underlying asset contract, like DAI.\n        Erc20 underlying = Erc20(_erc20Contract);\n\n        // Create a reference to the corresponding cToken contract, like cDAI\n        CErc20 cToken = CErc20(_cErc20Contract);\n\n        // Amount of current exchange rate from cToken to underlying\n        uint256 exchangeRateMantissa = cToken.exchangeRateCurrent();\n        emit MyLog(\"Exchange Rate (scaled up): \", exchangeRateMantissa);\n\n        // Amount added to you supply balance this block\n        uint256 supplyRateMantissa = cToken.supplyRatePerBlock();\n        emit MyLog(\"Supply Rate: (scaled up)\", supplyRateMantissa);\n\n        // Approve transfer on the ERC20 contract\n        underlying.approve(_cErc20Contract, _numTokensToSupply);\n\n        // Mint cTokens\n        uint mintResult = cToken.mint(_numTokensToSupply);\n        return mintResult;\n    }\n\n    function redeemCErc20Tokens(\n        uint256 amount,\n        bool redeemType,\n        address _cErc20Contract\n    ) public returns (bool) {\n        // Create a reference to the corresponding cToken contract, like cDAI\n        CErc20 cToken = CErc20(_cErc20Contract);\n\n        // `amount` is scaled up, see decimal table here:\n        // https://compound.finance/docs#protocol-math\n\n        uint256 redeemResult;\n\n        if (redeemType == true) {\n            // Retrieve your asset based on a cToken amount\n            redeemResult = cToken.redeem(amount);\n        } else {\n            // Retrieve your asset based on an amount of the asset\n            redeemResult = cToken.redeemUnderlying(amount);\n        }\n\n        // Error codes are listed here:\n        // https://compound.finance/developers/ctokens#ctoken-error-codes\n        emit MyLog(\"If this is not 0, there was an error\", redeemResult);\n\n        return true;\n    }\n\n    function redeemCEth(\n        uint256 amount,\n        bool redeemType,\n        address _cEtherContract\n    ) public returns (bool) {\n        // Create a reference to the corresponding cToken contract\n        CEth cToken = CEth(_cEtherContract);\n\n        // `amount` is scaled up by 1e18 to avoid decimals\n\n        uint256 redeemResult;\n\n        if (redeemType == true) {\n            // Retrieve your asset based on a cToken amount\n            redeemResult = cToken.redeem(amount);\n        } else {\n            // Retrieve your asset based on an amount of the asset\n            redeemResult = cToken.redeemUnderlying(amount);\n        }\n\n        // Error codes are listed here:\n        // https://compound.finance/docs/ctokens#ctoken-error-codes\n        emit MyLog(\"If this is not 0, there was an error\", redeemResult);\n\n        return true;\n    }\n\n    // This is needed to receive ETH when calling `redeemCEth`\n     receive() external payable {\n            // React to receiving ether\n        }\n}",
  "sourcePath": "/Users/victoria/projects/nest-finance/contracts/NestDeposit.sol",
  "compiler": {
    "name": "solc",
    "version": "0.8.5+commit.a4f2e591.Emscripten.clang"
  },
  "schemaVersion": "3.4.1",
  "updatedAt": "2021-08-16T22:59:27.261Z",
  "networkType": "ethereum",
  "devdoc": {
    "kind": "dev",
    "methods": {},
    "version": 1
  },
  "userdoc": {
    "kind": "user",
    "methods": {},
    "version": 1
  }
}