{
  "contractName": "NestDeposit",
  "abi": [
    {
      "anonymous": false,
      "inputs": [
        {
          "indexed": false,
          "internalType": "address",
          "name": "pool",
          "type": "address"
        },
        {
          "indexed": false,
          "internalType": "address",
          "name": "cerc20",
          "type": "address"
        },
        {
          "indexed": false,
          "internalType": "address",
          "name": "from",
          "type": "address"
        },
        {
          "indexed": false,
          "internalType": "uint256",
          "name": "amount",
          "type": "uint256"
        }
      ],
      "name": "DepositMade",
      "type": "event"
    },
    {
      "anonymous": false,
      "inputs": [
        {
          "indexed": false,
          "internalType": "string",
          "name": "",
          "type": "string"
        },
        {
          "indexed": false,
          "internalType": "uint256",
          "name": "",
          "type": "uint256"
        }
      ],
      "name": "MyLog",
      "type": "event"
    },
    {
      "anonymous": false,
      "inputs": [
        {
          "indexed": false,
          "internalType": "address",
          "name": "pool",
          "type": "address"
        },
        {
          "indexed": false,
          "internalType": "address",
          "name": "cerc20",
          "type": "address"
        },
        {
          "indexed": false,
          "internalType": "address",
          "name": "to",
          "type": "address"
        },
        {
          "indexed": false,
          "internalType": "uint256",
          "name": "amount",
          "type": "uint256"
        }
      ],
      "name": "WithdrawalMade",
      "type": "event"
    },
    {
      "stateMutability": "payable",
      "type": "receive",
      "payable": true
    },
    {
      "inputs": [
        {
          "internalType": "address",
          "name": "_erc20Contract",
          "type": "address"
        },
        {
          "internalType": "uint256",
          "name": "amount",
          "type": "uint256"
        }
      ],
      "name": "setPoolReserveMin",
      "outputs": [
        {
          "internalType": "bool",
          "name": "",
          "type": "bool"
        }
      ],
      "stateMutability": "nonpayable",
      "type": "function"
    },
    {
      "inputs": [
        {
          "internalType": "address",
          "name": "_erc20Contract",
          "type": "address"
        }
      ],
      "name": "getPoolReserveMin",
      "outputs": [
        {
          "internalType": "uint256",
          "name": "",
          "type": "uint256"
        }
      ],
      "stateMutability": "view",
      "type": "function",
      "constant": true
    },
    {
      "inputs": [
        {
          "internalType": "address",
          "name": "_erc20Contract",
          "type": "address"
        },
        {
          "internalType": "address",
          "name": "_cErc20Contract",
          "type": "address"
        }
      ],
      "name": "updateReserve",
      "outputs": [
        {
          "internalType": "bool",
          "name": "",
          "type": "bool"
        }
      ],
      "stateMutability": "nonpayable",
      "type": "function"
    },
    {
      "inputs": [
        {
          "internalType": "address",
          "name": "_erc20Contract",
          "type": "address"
        },
        {
          "internalType": "uint256",
          "name": "amount",
          "type": "uint256"
        }
      ],
      "name": "fillReserve",
      "outputs": [
        {
          "internalType": "bool",
          "name": "",
          "type": "bool"
        }
      ],
      "stateMutability": "nonpayable",
      "type": "function"
    },
    {
      "inputs": [
        {
          "internalType": "address payable",
          "name": "_to",
          "type": "address"
        }
      ],
      "name": "transferEther",
      "outputs": [],
      "stateMutability": "payable",
      "type": "function",
      "payable": true
    },
    {
      "inputs": [
        {
          "internalType": "address",
          "name": "_erc20Contract",
          "type": "address"
        },
        {
          "internalType": "address",
          "name": "_cErc20Contract",
          "type": "address"
        },
        {
          "internalType": "uint256",
          "name": "_numTokensToSupply",
          "type": "uint256"
        }
      ],
      "name": "depositErc20",
      "outputs": [
        {
          "internalType": "uint256",
          "name": "",
          "type": "uint256"
        }
      ],
      "stateMutability": "nonpayable",
      "type": "function"
    }
  ],
  "bytecode": "0x608060405234801561001057600080fd5b50610f45806100206000396000f3fe6080604052600436106100595760003560e01c80632898da20146100655780633dfb76f8146100a25780634c56b363146100df5780636b55e9911461011c5780638c2357ad14610138578063b1bca5f21461017557610060565b3661006057005b600080fd5b34801561007157600080fd5b5061008c60048036038101906100879190610b2f565b6101b2565b6040516100999190610ca3565b60405180910390f35b3480156100ae57600080fd5b506100c960048036038101906100c49190610a9c565b610311565b6040516100d69190610ca3565b60405180910390f35b3480156100eb57600080fd5b5061010660048036038101906101019190610adc565b61052e565b6040516101139190610cde565b60405180910390f35b61013660048036038101906101319190610a6f565b610882565b005b34801561014457600080fd5b5061015f600480360381019061015a9190610b2f565b610935565b60405161016c9190610ca3565b60405180910390f35b34801561018157600080fd5b5061019c60048036038101906101979190610a42565b61098d565b6040516101a99190610cde565b60405180910390f35b600080600260008573ffffffffffffffffffffffffffffffffffffffff1673ffffffffffffffffffffffffffffffffffffffff16815260200190815260200160002060009054906101000a900473ffffffffffffffffffffffffffffffffffffffff169050600081905060008173ffffffffffffffffffffffffffffffffffffffff1663852a12e3866040518263ffffffff1660e01b81526004016102579190610cde565b602060405180830381600087803b15801561027157600080fd5b505af1158015610285573d6000803e3d6000fd5b505050506040513d601f19601f820116820180604052508101906102a99190610b9c565b905080600160008873ffffffffffffffffffffffffffffffffffffffff1673ffffffffffffffffffffffffffffffffffffffff16815260200190815260200160002060000160008282546102fd9190610d15565b925050819055506001935050505092915050565b60008083905060008390506000600160008773ffffffffffffffffffffffffffffffffffffffff1673ffffffffffffffffffffffffffffffffffffffff1681526020019081526020016000209050806001015481600001541115610521576000816001015482600001546103859190610dc5565b90508373ffffffffffffffffffffffffffffffffffffffff1663095ea7b387836040518363ffffffff1660e01b81526004016103c2929190610c7a565b602060405180830381600087803b1580156103dc57600080fd5b505af11580156103f0573d6000803e3d6000fd5b505050506040513d601f19601f820116820180604052508101906104149190610b6f565b508273ffffffffffffffffffffffffffffffffffffffff1663a0712d68826040518263ffffffff1660e01b815260040161044e9190610cde565b602060405180830381600087803b15801561046857600080fd5b505af115801561047c573d6000803e3d6000fd5b505050506040513d601f19601f820116820180604052508101906104a09190610b9c565b5085600260008973ffffffffffffffffffffffffffffffffffffffff1673ffffffffffffffffffffffffffffffffffffffff16815260200190815260200160002060006101000a81548173ffffffffffffffffffffffffffffffffffffffff021916908373ffffffffffffffffffffffffffffffffffffffff160217905550505b6001935050505092915050565b60008084905060008490508173ffffffffffffffffffffffffffffffffffffffff1663095ea7b386866040518363ffffffff1660e01b8152600401610574929190610c7a565b602060405180830381600087803b15801561058e57600080fd5b505af11580156105a2573d6000803e3d6000fd5b505050506040513d601f19601f820116820180604052508101906105c69190610b6f565b5060008060003373ffffffffffffffffffffffffffffffffffffffff1673ffffffffffffffffffffffffffffffffffffffff168152602001908152602001600020905060008160000160008973ffffffffffffffffffffffffffffffffffffffff1673ffffffffffffffffffffffffffffffffffffffff168152602001908152602001600020905060008373ffffffffffffffffffffffffffffffffffffffff1663bd6d894d6040518163ffffffff1660e01b8152600401602060405180830381600087803b15801561069857600080fd5b505af11580156106ac573d6000803e3d6000fd5b505050506040513d601f19601f820116820180604052508101906106d09190610b9c565b9050600081886106e09190610d6b565b905087600160008c73ffffffffffffffffffffffffffffffffffffffff1673ffffffffffffffffffffffffffffffffffffffff16815260200190815260200160002060000160008282546107349190610d15565b925050819055508573ffffffffffffffffffffffffffffffffffffffff1663a9059cbb308a6040518363ffffffff1660e01b8152600401610776929190610c7a565b602060405180830381600087803b15801561079057600080fd5b505af11580156107a4573d6000803e3d6000fd5b505050506040513d601f19601f820116820180604052508101906107c89190610b6f565b50808360000160008282546107dd9190610d15565b925050819055503073ffffffffffffffffffffffffffffffffffffffff16633dfb76f88b8b6040518363ffffffff1660e01b815260040161081f929190610c51565b602060405180830381600087803b15801561083957600080fd5b505af115801561084d573d6000803e3d6000fd5b505050506040513d601f19601f820116820180604052508101906108719190610b6f565b508096505050505050509392505050565b6000808273ffffffffffffffffffffffffffffffffffffffff16346040516108a990610c3c565b60006040518083038185875af1925050503d80600081146108e6576040519150601f19603f3d011682016040523d82523d6000602084013e6108eb565b606091505b509150915081610930576040517f08c379a000000000000000000000000000000000000000000000000000000000815260040161092790610cbe565b60405180910390fd5b505050565b600080600160008573ffffffffffffffffffffffffffffffffffffffff1673ffffffffffffffffffffffffffffffffffffffff1681526020019081526020016000209050828160010181905550600191505092915050565b6000600160008373ffffffffffffffffffffffffffffffffffffffff1673ffffffffffffffffffffffffffffffffffffffff168152602001908152602001600020600101549050919050565b6000813590506109e881610eb3565b92915050565b6000813590506109fd81610eca565b92915050565b600081519050610a1281610ee1565b92915050565b600081359050610a2781610ef8565b92915050565b600081519050610a3c81610ef8565b92915050565b600060208284031215610a5857610a57610e82565b5b6000610a66848285016109d9565b91505092915050565b600060208284031215610a8557610a84610e82565b5b6000610a93848285016109ee565b91505092915050565b60008060408385031215610ab357610ab2610e82565b5b6000610ac1858286016109d9565b9250506020610ad2858286016109d9565b9150509250929050565b600080600060608486031215610af557610af4610e82565b5b6000610b03868287016109d9565b9350506020610b14868287016109d9565b9250506040610b2586828701610a18565b9150509250925092565b60008060408385031215610b4657610b45610e82565b5b6000610b54858286016109d9565b9250506020610b6585828601610a18565b9150509250929050565b600060208284031215610b8557610b84610e82565b5b6000610b9384828501610a03565b91505092915050565b600060208284031215610bb257610bb1610e82565b5b6000610bc084828501610a2d565b91505092915050565b610bd281610df9565b82525050565b610be181610e1d565b82525050565b6000610bf4601483610d04565b9150610bff82610e87565b602082019050919050565b6000610c17600083610cf9565b9150610c2282610eb0565b600082019050919050565b610c3681610e49565b82525050565b6000610c4782610c0a565b9150819050919050565b6000604082019050610c666000830185610bc9565b610c736020830184610bc9565b9392505050565b6000604082019050610c8f6000830185610bc9565b610c9c6020830184610c2d565b9392505050565b6000602082019050610cb86000830184610bd8565b92915050565b60006020820190508181036000830152610cd781610be7565b9050919050565b6000602082019050610cf36000830184610c2d565b92915050565b600081905092915050565b600082825260208201905092915050565b6000610d2082610e49565b9150610d2b83610e49565b9250827fffffffffffffffffffffffffffffffffffffffffffffffffffffffffffffffff03821115610d6057610d5f610e53565b5b828201905092915050565b6000610d7682610e49565b9150610d8183610e49565b9250817fffffffffffffffffffffffffffffffffffffffffffffffffffffffffffffffff0483118215151615610dba57610db9610e53565b5b828202905092915050565b6000610dd082610e49565b9150610ddb83610e49565b925082821015610dee57610ded610e53565b5b828203905092915050565b6000610e0482610e29565b9050919050565b6000610e1682610e29565b9050919050565b60008115159050919050565b600073ffffffffffffffffffffffffffffffffffffffff82169050919050565b6000819050919050565b7f4e487b7100000000000000000000000000000000000000000000000000000000600052601160045260246000fd5b600080fd5b7f4661696c656420746f2073656e64204574686572000000000000000000000000600082015250565b50565b610ebc81610df9565b8114610ec757600080fd5b50565b610ed381610e0b565b8114610ede57600080fd5b50565b610eea81610e1d565b8114610ef557600080fd5b50565b610f0181610e49565b8114610f0c57600080fd5b5056fea2646970667358221220acce30970cc0a0ae72e1136f917918c3556ee55d47f47aafab91722a25e780b764736f6c63430008050033",
  "immutableReferences": {},
  "source": "pragma solidity >=0.4.22 <0.9.0;\n\ninterface Erc20 {\n    function approve(address, uint256) external returns (bool);\n\n    function transfer(address, uint256) external returns (bool);\n\n    function transferFrom(address, address, uint256) external returns (bool);\n}\ninterface CErc20 {\n    function mint(uint256) external returns (uint256);\n\n    function exchangeRateCurrent() external returns (uint256);\n\n    function supplyRatePerBlock() external returns (uint256);\n\n    function redeem(uint) external returns (uint);\n\n    function redeemUnderlying(uint) external returns (uint);\n\n    function transfer(address, uint256) external returns (bool);\n}\ninterface CEth {\n    function mint() external payable;\n\n    function exchangeRateCurrent() external returns (uint256);\n\n    function supplyRatePerBlock() external returns (uint256);\n\n    function redeem(uint) external returns (uint);\n\n    function redeemUnderlying(uint) external returns (uint);\n}\n\n\n\ninterface IRecursive {\n    function updateReserve(\n        address _erc20Contract,\n        address _cErc20Contract) external returns (bool);\n\n    function fillReserve(\n            address _erc20Contract,\n            uint256 amount) external returns (bool);\n}\n\n\ncontract NestDeposit is IRecursive {\n\n    struct Pool {\n        uint256 balance;\n        uint256 reserve;\n        uint256 performanceFee;\n        uint256 managementFee;\n    }\n\n    struct Token {\n        uint256 balance;\n    }\n\n    struct Account {\n        mapping(address => Token) tokens;\n    }\n\n    mapping(address => Account) internal accounts;\n\n    mapping(address => Pool) internal pools;\n\n    mapping(address => address) internal marketPairs;\n\n    event MyLog(string, uint256);\n\n    event DepositMade(address pool, address cerc20, address from, uint256 amount);\n\n    event WithdrawalMade(address pool, address cerc20, address to, uint256 amount);\n\n    function setPoolReserveMin(address _erc20Contract, uint256 amount) external returns(bool){\n        Pool storage pool = pools[_erc20Contract];\n        pool.reserve = amount;\n        return true;\n    }\n\n    function getPoolReserveMin(address _erc20Contract) external view returns(uint256){\n        return pools[_erc20Contract].reserve;\n    }\n\n    function updateReserve(\n        address _erc20Contract,\n        address _cErc20Contract) external override returns (bool) {\n\n        // Create a reference to the underlying asset contract, like DAI.\n        Erc20 underlying = Erc20(_erc20Contract);\n\n        // Create a reference to the corresponding cToken contract, like cDAI\n        CErc20 cToken = CErc20(_cErc20Contract);\n\n        // Update pool balance\n        Pool storage pool = pools[_erc20Contract];\n        if(pool.balance > pool.reserve ) {\n            uint256 amount = pool.balance - pool.reserve;\n            underlying.approve(_cErc20Contract, amount);\n            cToken.mint((amount));\n\n            // Save valid Erc20 to cErc20 pair\n            marketPairs[_erc20Contract] = _cErc20Contract;\n        }\n\n        return true;\n    }\n\n       function fillReserve(\n            address _erc20Contract,\n            uint256 amount) external override returns (bool) {\n\n        // Get valid cERC20 address from previous succesful deposit\n        address _cErc20Contract = marketPairs[_erc20Contract];\n\n        // Create a reference to the corresponding cToken contract, like cDAI\n        CErc20 cToken = CErc20(_cErc20Contract);\n\n        // Redeem underlying\n        uint256 redeemed = cToken.redeemUnderlying(amount);\n\n        // Update pool balance\n        pools[_erc20Contract].balance += redeemed;\n\n        return true;\n    }\n\n    function transferEther(address payable _to) public payable {\n        // Call returns a boolean value indicating success or failure.\n        // This is the current recommended method to use.\n        (bool sent, bytes memory data) = _to.call{value: msg.value}(\"\");\n        require(sent, \"Failed to send Ether\");\n    }\n\n    function depositErc20(\n        address _erc20Contract,\n        address _cErc20Contract,\n        uint256 _numTokensToSupply\n    ) public returns (uint256) {        \n        // Create a reference to the underlying asset contract, like DAI.\n        Erc20 underlying = Erc20(_erc20Contract);\n\n        // Create a reference to the corresponding cToken contract, like cDAI\n        CErc20 cToken = CErc20(_cErc20Contract);\n\n        // Approve transfer on the ERC20 contract\n        underlying.approve(_cErc20Contract, _numTokensToSupply);\n\n        //  Record tokens\n        // Get user account\n        Account storage account = accounts[msg.sender];\n\n        // Save deposit\n        Token storage token = account.tokens[_erc20Contract];\n\n        // Get exchange rate\n        uint256 exchangeRateMantissa = cToken.exchangeRateCurrent();\n\n        // Calculate cToken value\n        uint256 mintResult = _numTokensToSupply*exchangeRateMantissa;\n\n        // Update pool balance\n        pools[_erc20Contract].balance += _numTokensToSupply;\n\n        // Give this contract the ERC20 Tokens\n        underlying.transfer(address(this), _numTokensToSupply);\n\n        // Calculate current balance  and add new balance to it\n        token.balance += mintResult;\n\n        // Check if we should mint\n        IRecursive(address(this)).updateReserve(_erc20Contract, _cErc20Contract);\n\n        return mintResult;\n    }\n\n\n    function withdrawErc20Tokens(\n        address _erc20Contract,\n        uint256 amount\n    ) internal returns (bool) {\n        // Get valid cERC20 address from previous succesful deposit\n        address _cErc20Contract = marketPairs[_erc20Contract];\n\n        // Create a reference to the underlying asset contract, like DAI.\n        Erc20 underlying = Erc20(_erc20Contract);\n\n        // Create a reference to the corresponding cToken contract, like cDAI\n        CErc20 cToken = CErc20(_cErc20Contract);\n\n        // Get user account\n        Account storage account = accounts[msg.sender];\n\n        // Check if user has enough funds\n        Token storage token = account.tokens[_erc20Contract];\n\n        uint256 exchangeRateMantissa = cToken.exchangeRateCurrent();\n\n        uint256 underlyingAmount = token.balance / exchangeRateMantissa;\n\n        assert((underlyingAmount) > amount);\n\n        // Get pool\n        Pool storage pool = pools[_erc20Contract];\n\n        if(pool.reserve < amount) {\n            // Redeem underlying\n            IRecursive(address(this)).fillReserve(_erc20Contract, amount);\n        }\n\n        underlying.transferFrom(address(this), msg.sender, amount);\n\n        // Subtract cTokens\n        token.balance -= amount*exchangeRateMantissa;\n\n        return true;\n    }\n\n     receive() external payable {\n            // React to receiving ether\n     }\n}",
  "sourcePath": "/Users/victoria/projects/nest/contracts/NestDeposit.sol",
  "compiler": {
    "name": "solc",
    "version": "0.8.5+commit.a4f2e591.Emscripten.clang"
  },
  "schemaVersion": "3.4.1",
  "updatedAt": "2021-11-11T13:45:21.062Z",
  "networkType": "ethereum",
  "devdoc": {
    "kind": "dev",
    "methods": {},
    "version": 1
  },
  "userdoc": {
    "kind": "user",
    "methods": {},
    "version": 1
  }
}